{
    "abi": [
        {
            "inputs": [],
            "stateMutability": "nonpayable",
            "type": "constructor"
        },
        {
            "anonymous": false,
            "inputs": [
                {
                    "indexed": true,
                    "internalType": "address",
                    "name": "owner",
                    "type": "address"
                },
                {
                    "indexed": true,
                    "internalType": "address",
                    "name": "approved",
                    "type": "address"
                },
                {
                    "indexed": true,
                    "internalType": "uint256",
                    "name": "tokenId",
                    "type": "uint256"
                }
            ],
            "name": "Approval",
            "type": "event"
        },
        {
            "anonymous": false,
            "inputs": [
                {
                    "indexed": true,
                    "internalType": "address",
                    "name": "owner",
                    "type": "address"
                },
                {
                    "indexed": true,
                    "internalType": "address",
                    "name": "operator",
                    "type": "address"
                },
                {
                    "indexed": false,
                    "internalType": "bool",
                    "name": "approved",
                    "type": "bool"
                }
            ],
            "name": "ApprovalForAll",
            "type": "event"
        },
        {
            "anonymous": false,
            "inputs": [
                {
                    "indexed": true,
                    "internalType": "address",
                    "name": "previousOwner",
                    "type": "address"
                },
                {
                    "indexed": true,
                    "internalType": "address",
                    "name": "newOwner",
                    "type": "address"
                }
            ],
            "name": "OwnershipTransferred",
            "type": "event"
        },
        {
            "anonymous": false,
            "inputs": [
                {
                    "indexed": true,
                    "internalType": "address",
                    "name": "from",
                    "type": "address"
                },
                {
                    "indexed": true,
                    "internalType": "address",
                    "name": "to",
                    "type": "address"
                },
                {
                    "indexed": true,
                    "internalType": "uint256",
                    "name": "tokenId",
                    "type": "uint256"
                }
            ],
            "name": "Transfer",
            "type": "event"
        },
        {
            "inputs": [
                {
                    "internalType": "address",
                    "name": "",
                    "type": "address"
                }
            ],
            "name": "AllDonators",
            "outputs": [
                {
                    "internalType": "uint256",
                    "name": "donatorsIdx",
                    "type": "uint256"
                },
                {
                    "internalType": "address",
                    "name": "adr",
                    "type": "address"
                },
                {
                    "internalType": "uint256",
                    "name": "amount",
                    "type": "uint256"
                },
                {
                    "internalType": "uint256",
                    "name": "donCount",
                    "type": "uint256"
                }
            ],
            "stateMutability": "view",
            "type": "function"
        },
        {
            "inputs": [
                {
                    "internalType": "uint256",
                    "name": "",
                    "type": "uint256"
                }
            ],
            "name": "AllPosts",
            "outputs": [
                {
                    "internalType": "uint256",
                    "name": "postIdx",
                    "type": "uint256"
                },
                {
                    "internalType": "address",
                    "name": "author",
                    "type": "address"
                },
                {
                    "internalType": "string",
                    "name": "post",
                    "type": "string"
                },
                {
                    "internalType": "string",
                    "name": "slug",
                    "type": "string"
                },
                {
                    "internalType": "uint256",
                    "name": "likecount",
                    "type": "uint256"
                }
            ],
            "stateMutability": "view",
            "type": "function"
        },
        {
            "inputs": [
                {
                    "internalType": "uint256",
                    "name": "postId",
                    "type": "uint256"
                }
            ],
            "name": "DeletePost",
            "outputs": [],
            "stateMutability": "nonpayable",
            "type": "function"
        },
        {
            "inputs": [],
            "name": "Donate",
            "outputs": [],
            "stateMutability": "payable",
            "type": "function"
        },
        {
            "inputs": [],
            "name": "DonorAdr",
            "outputs": [
                {
                    "internalType": "address[]",
                    "name": "",
                    "type": "address[]"
                }
            ],
            "stateMutability": "view",
            "type": "function"
        },
        {
            "inputs": [
                {
                    "internalType": "uint256",
                    "name": "",
                    "type": "uint256"
                }
            ],
            "name": "DonorsAdrLst",
            "outputs": [
                {
                    "internalType": "address",
                    "name": "",
                    "type": "address"
                }
            ],
            "stateMutability": "view",
            "type": "function"
        },
        {
            "inputs": [
                {
                    "internalType": "uint256",
                    "name": "postId",
                    "type": "uint256"
                }
            ],
            "name": "LikeandUnlikePost",
            "outputs": [],
            "stateMutability": "nonpayable",
            "type": "function"
        },
        {
            "inputs": [
                {
                    "internalType": "string",
                    "name": "post",
                    "type": "string"
                },
                {
                    "internalType": "string",
                    "name": "slug",
                    "type": "string"
                }
            ],
            "name": "NewPost",
            "outputs": [],
            "stateMutability": "nonpayable",
            "type": "function"
        },
        {
            "inputs": [],
            "name": "OwnWallet",
            "outputs": [
                {
                    "internalType": "uint256[]",
                    "name": "",
                    "type": "uint256[]"
                }
            ],
            "stateMutability": "view",
            "type": "function"
        },
        {
            "inputs": [
                {
                    "internalType": "uint256",
                    "name": "",
                    "type": "uint256"
                },
                {
                    "internalType": "address",
                    "name": "",
                    "type": "address"
                }
            ],
            "name": "PostLikes",
            "outputs": [
                {
                    "internalType": "address",
                    "name": "user",
                    "type": "address"
                },
                {
                    "internalType": "bool",
                    "name": "liked",
                    "type": "bool"
                }
            ],
            "stateMutability": "view",
            "type": "function"
        },
        {
            "inputs": [
                {
                    "internalType": "uint256",
                    "name": "postId",
                    "type": "uint256"
                }
            ],
            "name": "ReturnLiked",
            "outputs": [
                {
                    "internalType": "bool",
                    "name": "",
                    "type": "bool"
                }
            ],
            "stateMutability": "view",
            "type": "function"
        },
        {
            "inputs": [],
            "name": "ReturnPosts",
            "outputs": [
                {
                    "components": [
                        {
                            "internalType": "uint256",
                            "name": "postIdx",
                            "type": "uint256"
                        },
                        {
                            "internalType": "address",
                            "name": "author",
                            "type": "address"
                        },
                        {
                            "internalType": "string",
                            "name": "post",
                            "type": "string"
                        },
                        {
                            "internalType": "string",
                            "name": "slug",
                            "type": "string"
                        },
                        {
                            "internalType": "uint256",
                            "name": "likecount",
                            "type": "uint256"
                        }
                    ],
                    "internalType": "struct FundRaiser.Post[]",
                    "name": "",
                    "type": "tuple[]"
                }
            ],
            "stateMutability": "view",
            "type": "function"
        },
        {
            "inputs": [
                {
                    "internalType": "address payable",
                    "name": "adr",
                    "type": "address"
                }
            ],
            "name": "TransferDonations",
            "outputs": [],
            "stateMutability": "payable",
            "type": "function"
        },
        {
            "inputs": [],
            "name": "_TotalDonations",
            "outputs": [
                {
                    "internalType": "uint256",
                    "name": "",
                    "type": "uint256"
                }
            ],
            "stateMutability": "view",
            "type": "function"
        },
        {
            "inputs": [],
            "name": "_donationtBalance",
            "outputs": [
                {
                    "internalType": "uint256",
                    "name": "",
                    "type": "uint256"
                }
            ],
            "stateMutability": "view",
            "type": "function"
        },
        {
            "inputs": [
                {
                    "internalType": "address",
                    "name": "to",
                    "type": "address"
                },
                {
                    "internalType": "uint256",
                    "name": "tokenId",
                    "type": "uint256"
                }
            ],
            "name": "approve",
            "outputs": [],
            "stateMutability": "nonpayable",
            "type": "function"
        },
        {
            "inputs": [
                {
                    "internalType": "address",
                    "name": "owner",
                    "type": "address"
                }
            ],
            "name": "balanceOf",
            "outputs": [
                {
                    "internalType": "uint256",
                    "name": "",
                    "type": "uint256"
                }
            ],
            "stateMutability": "view",
            "type": "function"
        },
        {
            "inputs": [
                {
                    "internalType": "uint256",
                    "name": "tokenId",
                    "type": "uint256"
                }
            ],
            "name": "getApproved",
            "outputs": [
                {
                    "internalType": "address",
                    "name": "",
                    "type": "address"
                }
            ],
            "stateMutability": "view",
            "type": "function"
        },
        {
            "inputs": [
                {
                    "internalType": "address",
                    "name": "owner",
                    "type": "address"
                },
                {
                    "internalType": "address",
                    "name": "operator",
                    "type": "address"
                }
            ],
            "name": "isApprovedForAll",
            "outputs": [
                {
                    "internalType": "bool",
                    "name": "",
                    "type": "bool"
                }
            ],
            "stateMutability": "view",
            "type": "function"
        },
        {
            "inputs": [],
            "name": "name",
            "outputs": [
                {
                    "internalType": "string",
                    "name": "",
                    "type": "string"
                }
            ],
            "stateMutability": "view",
            "type": "function"
        },
        {
            "inputs": [],
            "name": "owner",
            "outputs": [
                {
                    "internalType": "address",
                    "name": "",
                    "type": "address"
                }
            ],
            "stateMutability": "view",
            "type": "function"
        },
        {
            "inputs": [
                {
                    "internalType": "uint256",
                    "name": "tokenId",
                    "type": "uint256"
                }
            ],
            "name": "ownerOf",
            "outputs": [
                {
                    "internalType": "address",
                    "name": "",
                    "type": "address"
                }
            ],
            "stateMutability": "view",
            "type": "function"
        },
        {
            "inputs": [],
            "name": "renounceOwnership",
            "outputs": [],
            "stateMutability": "nonpayable",
            "type": "function"
        },
        {
            "inputs": [
                {
                    "internalType": "string",
                    "name": "uri",
                    "type": "string"
                }
            ],
            "name": "safeMint",
            "outputs": [],
            "stateMutability": "nonpayable",
            "type": "function"
        },
        {
            "inputs": [
                {
                    "internalType": "address",
                    "name": "from",
                    "type": "address"
                },
                {
                    "internalType": "address",
                    "name": "to",
                    "type": "address"
                },
                {
                    "internalType": "uint256",
                    "name": "tokenId",
                    "type": "uint256"
                }
            ],
            "name": "safeTransferFrom",
            "outputs": [],
            "stateMutability": "nonpayable",
            "type": "function"
        },
        {
            "inputs": [
                {
                    "internalType": "address",
                    "name": "from",
                    "type": "address"
                },
                {
                    "internalType": "address",
                    "name": "to",
                    "type": "address"
                },
                {
                    "internalType": "uint256",
                    "name": "tokenId",
                    "type": "uint256"
                },
                {
                    "internalType": "bytes",
                    "name": "data",
                    "type": "bytes"
                }
            ],
            "name": "safeTransferFrom",
            "outputs": [],
            "stateMutability": "nonpayable",
            "type": "function"
        },
        {
            "inputs": [
                {
                    "internalType": "address",
                    "name": "operator",
                    "type": "address"
                },
                {
                    "internalType": "bool",
                    "name": "approved",
                    "type": "bool"
                }
            ],
            "name": "setApprovalForAll",
            "outputs": [],
            "stateMutability": "nonpayable",
            "type": "function"
        },
        {
            "inputs": [
                {
                    "internalType": "bytes4",
                    "name": "interfaceId",
                    "type": "bytes4"
                }
            ],
            "name": "supportsInterface",
            "outputs": [
                {
                    "internalType": "bool",
                    "name": "",
                    "type": "bool"
                }
            ],
            "stateMutability": "view",
            "type": "function"
        },
        {
            "inputs": [],
            "name": "symbol",
            "outputs": [
                {
                    "internalType": "string",
                    "name": "",
                    "type": "string"
                }
            ],
            "stateMutability": "view",
            "type": "function"
        },
        {
            "inputs": [
                {
                    "internalType": "uint256",
                    "name": "index",
                    "type": "uint256"
                }
            ],
            "name": "tokenByIndex",
            "outputs": [
                {
                    "internalType": "uint256",
                    "name": "",
                    "type": "uint256"
                }
            ],
            "stateMutability": "view",
            "type": "function"
        },
        {
            "inputs": [
                {
                    "internalType": "address",
                    "name": "owner",
                    "type": "address"
                },
                {
                    "internalType": "uint256",
                    "name": "index",
                    "type": "uint256"
                }
            ],
            "name": "tokenOfOwnerByIndex",
            "outputs": [
                {
                    "internalType": "uint256",
                    "name": "",
                    "type": "uint256"
                }
            ],
            "stateMutability": "view",
            "type": "function"
        },
        {
            "inputs": [
                {
                    "internalType": "uint256",
                    "name": "tokenId",
                    "type": "uint256"
                }
            ],
            "name": "tokenURI",
            "outputs": [
                {
                    "internalType": "string",
                    "name": "",
                    "type": "string"
                }
            ],
            "stateMutability": "view",
            "type": "function"
        },
        {
            "inputs": [],
            "name": "totalSupply",
            "outputs": [
                {
                    "internalType": "uint256",
                    "name": "",
                    "type": "uint256"
                }
            ],
            "stateMutability": "view",
            "type": "function"
        },
        {
            "inputs": [
                {
                    "internalType": "address",
                    "name": "from",
                    "type": "address"
                },
                {
                    "internalType": "address",
                    "name": "to",
                    "type": "address"
                },
                {
                    "internalType": "uint256",
                    "name": "tokenId",
                    "type": "uint256"
                }
            ],
            "name": "transferFrom",
            "outputs": [],
            "stateMutability": "nonpayable",
            "type": "function"
        },
        {
            "inputs": [
                {
                    "internalType": "address",
                    "name": "newOwner",
                    "type": "address"
                }
            ],
            "name": "transferOwnership",
            "outputs": [],
            "stateMutability": "nonpayable",
            "type": "function"
        }
    ],
    "bytecode": "60806040523480156200001157600080fd5b506040518060400160405280600e81526020016d46756e645261697365724e46547360901b8152506040518060400160405280600381526020016223292760e91b8152508160009081620000669190620001a2565b506001620000758282620001a2565b505050620000926200008c620000a760201b60201c565b620000ab565b620000a1600f80546001019055565b6200026e565b3390565b600b80546001600160a01b038381166001600160a01b0319831681179093556040519116919082907f8be0079c531659141344cd1fd0a4f28419497f9722a3daafe3b4186f6b6457e090600090a35050565b634e487b7160e01b600052604160045260246000fd5b600181811c908216806200012857607f821691505b6020821081036200014957634e487b7160e01b600052602260045260246000fd5b50919050565b601f8211156200019d57600081815260208120601f850160051c81016020861015620001785750805b601f850160051c820191505b81811015620001995782815560010162000184565b5050505b505050565b81516001600160401b03811115620001be57620001be620000fd565b620001d681620001cf845462000113565b846200014f565b602080601f8311600181146200020e5760008415620001f55750858301515b600019600386901b1c1916600185901b17855562000199565b600085815260208120601f198616915b828110156200023f578886015182559484019460019091019084016200021e565b50858210156200025e5787850151600019600388901b60f8161c191681555b5050505050600190811b01905550565b6131c8806200027e6000396000f3fe6080604052600436106102045760003560e01c80636dc6f31a11610118578063a22cb465116100a0578063d03988601161006f578063d039886014610681578063d917deb5146106a1578063e432326f146106a9578063e985e9c5146106be578063f2fde38b1461070757600080fd5b8063a22cb4651461060b578063acb5ec221461062b578063b88d4fde14610641578063c87b56dd1461066157600080fd5b80637b6ac530116100e75780637b6ac5301461052257806388219509146105425780638da5cb5b1461056457806395d89b411461058257806399216fc21461059757600080fd5b80636dc6f31a146104ba57806370a08231146104cd578063715018a6146104ed57806375c16cb21461050257600080fd5b806323b872dd1161019b5780634842ed6a1161016a5780634842ed6a146104185780634f6ccce71461043a5780635b7b0c141461045a5780636352211e1461047a578063695850fb1461049a57600080fd5b806323b872dd146103875780632f745c59146103a757806339a0915c146103c757806342842e0e146103f857600080fd5b806316561642116101d757806316561642146102ba57806318160ddd146102da5780631b44ba44146102f957806321b8b13c1461036557600080fd5b806301ffc9a71461020957806306fdde031461023e578063081812fc14610260578063095ea7b314610298575b600080fd5b34801561021557600080fd5b50610229610224366004612948565b610727565b60405190151581526020015b60405180910390f35b34801561024a57600080fd5b50610253610738565b60405161023591906129b5565b34801561026c57600080fd5b5061028061027b3660046129c8565b6107ca565b6040516001600160a01b039091168152602001610235565b3480156102a457600080fd5b506102b86102b33660046129f6565b6107f1565b005b3480156102c657600080fd5b506102806102d53660046129c8565b61090b565b3480156102e657600080fd5b506008545b604051908152602001610235565b34801561030557600080fd5b50610346610314366004612a22565b60126020908152600092835260408084209091529082529020546001600160a01b03811690600160a01b900460ff1682565b604080516001600160a01b039093168352901515602083015201610235565b34801561037157600080fd5b5061037a610935565b6040516102359190612a52565b34801561039357600080fd5b506102b86103a2366004612a96565b6109d6565b3480156103b357600080fd5b506102eb6103c23660046129f6565b610a07565b3480156103d357600080fd5b506103e76103e23660046129c8565b610a9d565b604051610235959493929190612ad7565b34801561040457600080fd5b506102b8610413366004612a96565b610be6565b34801561042457600080fd5b5061042d610c01565b6040516102359190612b26565b34801561044657600080fd5b506102eb6104553660046129c8565b610cd5565b34801561046657600080fd5b506102b8610475366004612c13565b610d68565b34801561048657600080fd5b506102806104953660046129c8565b610e20565b3480156104a657600080fd5b506102b86104b5366004612c77565b610e80565b6102b86104c8366004612cac565b610f45565b3480156104d957600080fd5b506102eb6104e8366004612cac565b611052565b3480156104f957600080fd5b506102b86110d8565b34801561050e57600080fd5b506102b861051d3660046129c8565b6110ec565b34801561052e57600080fd5b5061022961053d3660046129c8565b611213565b34801561054e57600080fd5b506105576112c9565b6040516102359190612cc9565b34801561057057600080fd5b50600b546001600160a01b0316610280565b34801561058e57600080fd5b50610253611535565b3480156105a357600080fd5b506105e36105b2366004612cac565b601460205260009081526040902080546001820154600283015460039093015491926001600160a01b039091169184565b604080519485526001600160a01b039093166020850152918301526060820152608001610235565b34801561061757600080fd5b506102b8610626366004612d7b565b611544565b34801561063757600080fd5b506102eb60105481565b34801561064d57600080fd5b506102b861065c366004612dae565b61154f565b34801561066d57600080fd5b5061025361067c3660046129c8565b611587565b34801561068d57600080fd5b506102b861069c3660046129c8565b61160f565b6102b86117b2565b3480156106b557600080fd5b506102eb6119f6565b3480156106ca57600080fd5b506102296106d9366004612e2e565b6001600160a01b03918216600090815260056020908152604080832093909416825291909152205460ff1690565b34801561071357600080fd5b506102b8610722366004612cac565b611a07565b600061073282611a7d565b92915050565b60606000805461074790612e5c565b80601f016020809104026020016040519081016040528092919081815260200182805461077390612e5c565b80156107c05780601f10610795576101008083540402835291602001916107c0565b820191906000526020600020905b8154815290600101906020018083116107a357829003601f168201915b5050505050905090565b60006107d582611aa2565b506000908152600460205260409020546001600160a01b031690565b60006107fc82610e20565b9050806001600160a01b0316836001600160a01b03160361086e5760405162461bcd60e51b815260206004820152602160248201527f4552433732313a20617070726f76616c20746f2063757272656e74206f776e656044820152603960f91b60648201526084015b60405180910390fd5b336001600160a01b038216148061088a575061088a81336106d9565b6108fc5760405162461bcd60e51b815260206004820152603d60248201527f4552433732313a20617070726f76652063616c6c6572206973206e6f7420746f60448201527f6b656e206f776e6572206f7220617070726f76656420666f7220616c6c0000006064820152608401610865565b6109068383611b01565b505050565b6015818154811061091b57600080fd5b6000918252602090912001546001600160a01b0316905081565b6060600061094233611052565b905060008167ffffffffffffffff81111561095f5761095f612b67565b604051908082528060200260200182016040528015610988578160200160208202803683370190505b50905060005b828110156109cf576109a03382610a07565b8282815181106109b2576109b2612e96565b6020908102919091010152806109c781612ec2565b91505061098e565b5092915050565b6109e03382611b6f565b6109fc5760405162461bcd60e51b815260040161086590612edb565b610906838383611bee565b6000610a1283611052565b8210610a745760405162461bcd60e51b815260206004820152602b60248201527f455243373231456e756d657261626c653a206f776e657220696e646578206f7560448201526a74206f6620626f756e647360a81b6064820152608401610865565b506001600160a01b03919091166000908152600660209081526040808320938352929052205490565b60136020526000908152604090208054600182015460028301805492936001600160a01b0390921692610acf90612e5c565b80601f0160208091040260200160405190810160405280929190818152602001828054610afb90612e5c565b8015610b485780601f10610b1d57610100808354040283529160200191610b48565b820191906000526020600020905b815481529060010190602001808311610b2b57829003601f168201915b505050505090806003018054610b5d90612e5c565b80601f0160208091040260200160405190810160405280929190818152602001828054610b8990612e5c565b8015610bd65780601f10610bab57610100808354040283529160200191610bd6565b820191906000526020600020905b815481529060010190602001808311610bb957829003601f168201915b5050505050908060040154905085565b6109068383836040518060200160405280600081525061154f565b6060610c0b611d5f565b60155460009067ffffffffffffffff811115610c2957610c29612b67565b604051908082528060200260200182016040528015610c52578160200160208202803683370190505b50905060005b601554811015610ccf5760158181548110610c7557610c75612e96565b9060005260206000200160009054906101000a90046001600160a01b0316828281518110610ca557610ca5612e96565b6001600160a01b039092166020928302919091019091015280610cc781612ec2565b915050610c58565b50905090565b6000610ce060085490565b8210610d435760405162461bcd60e51b815260206004820152602c60248201527f455243373231456e756d657261626c653a20676c6f62616c20696e646578206f60448201526b7574206f6620626f756e647360a01b6064820152608401610865565b60088281548110610d5657610d56612e96565b90600052602060002001549050919050565b6000825111610da85760405162461bcd60e51b815260206004820152600c60248201526b125b9d985b1a5908141bdcdd60a21b6044820152606401610865565b600060136000610db7600d5490565b81526020019081526020016000209050610dd0600d5490565b81556001810180546001600160a01b0319163317905560028101610df48482612f76565b5060038101610e038382612f76565b50610e12600d80546001019055565b610906600e80546001019055565b6000818152600260205260408120546001600160a01b0316806107325760405162461bcd60e51b8152602060048201526018602482015277115490cdcc8c4e881a5b9d985b1a59081d1bdad95b88125160421b6044820152606401610865565b6001610e8b33611052565b33600090815260146020526040902060030154610ea89190613036565b1015610f125760405162461bcd60e51b815260206004820152603360248201527f54686520436f6e6e6563746564206163636f756e74206973204e6f7420656c6960448201527233b4b13632903a379026b4b73a103a37b5b2b760691b6064820152608401610865565b6000610f1d600f5490565b9050610f2d600f80546001019055565b610f373382611db9565b610f418183611dd3565b5050565b610f4d611d5f565b6001600160a01b0381163303610fb15760405162461bcd60e51b8152602060048201526024808201527f5472616e7366657220546f204f776e204163636f756e74204973204e6f742056604482015263185b1a5960e21b6064820152608401610865565b60115434106110025760405162461bcd60e51b815260206004820152601a60248201527f5769746864726177616c204c696d6974732045786363656465640000000000006044820152606401610865565b6040516001600160a01b038216903480156108fc02916000818181858888f19350505050158015611037573d6000803e3d6000fd5b50346011600082825461104a9190613036565b909155505050565b60006001600160a01b0382166110bc5760405162461bcd60e51b815260206004820152602960248201527f4552433732313a2061646472657373207a65726f206973206e6f7420612076616044820152683634b21037bbb732b960b91b6064820152608401610865565b506001600160a01b031660009081526003602052604090205490565b6110e0611d5f565b6110ea6000611e66565b565b60008181526013602052604090205481146111495760405162461bcd60e51b815260206004820152601d60248201527f496e76616c69642e2e20506f737420446f6573204e6f742045786973740000006044820152606401610865565b6000818152601360205260409020600101546001600160a01b031633146111bd5760405162461bcd60e51b815260206004820152602260248201527f4163636f756e7420556e6174687572697a656420546f2044656c65746520506f6044820152611cdd60f21b6064820152608401610865565b60008181526013602052604081208181556001810180546001600160a01b0319169055906111ee60028301826128e4565b6111fc6003830160006128e4565b60048201600090555050611210600e611eb8565b50565b60008181526013602052604081205482146112705760405162461bcd60e51b815260206004820152601960248201527f696e76616c696420506f737420446f204e6f74204578697374000000000000006044820152606401610865565b6000828152601260209081526040808320338085529252909120546001600160a01b0316146112a157506000919050565b506000908152601260209081526040808320338452909152902054600160a01b900460ff1690565b60606000806112d7600e5490565b67ffffffffffffffff8111156112ef576112ef612b67565b60405190808252806020026020018201604052801561135b57816020015b6113486040518060a001604052806000815260200160006001600160a01b031681526020016060815260200160608152602001600081525090565b81526020019060019003908161130d5790505b50905060005b600d548110156109cf576000818152601360205260408120600201805461138790612e5c565b9050111561152357600081815260136020908152604091829020825160a0810184528154815260018201546001600160a01b03169281019290925260028101805492939192918401916113d990612e5c565b80601f016020809104026020016040519081016040528092919081815260200182805461140590612e5c565b80156114525780601f1061142757610100808354040283529160200191611452565b820191906000526020600020905b81548152906001019060200180831161143557829003601f168201915b5050505050815260200160038201805461146b90612e5c565b80601f016020809104026020016040519081016040528092919081815260200182805461149790612e5c565b80156114e45780601f106114b9576101008083540402835291602001916114e4565b820191906000526020600020905b8154815290600101906020018083116114c757829003601f168201915b5050505050815260200160048201548152505082848151811061150957611509612e96565b6020026020010181905250828061151f90612ec2565b9350505b8061152d81612ec2565b915050611361565b60606001805461074790612e5c565b610f41338383611f0f565b6115593383611b6f565b6115755760405162461bcd60e51b815260040161086590612edb565b61158184848484611fdd565b50505050565b6000818152600260205260409020546060906001600160a01b03166116065760405162461bcd60e51b815260206004820152602f60248201527f4552433732314d657461646174613a2055524920717565727920666f72206e6f60448201526e3732bc34b9ba32b73a103a37b5b2b760891b6064820152608401610865565b61073282612010565b600081815260136020526040902054811461166c5760405162461bcd60e51b815260206004820152601960248201527f496e76616c696420506f737420446f204e6f74204578697374000000000000006044820152606401610865565b6000818152601260209081526040808320338085529252909120546001600160a01b03160361174c576000818152601260209081526040808320338452909152902054600160a01b900460ff1615156001036117045760008181526012602090815260408083203384528252808320805460ff60a01b191690558383526013909152812060040180546001929061104a908490613036565b60008181526012602090815260408083203384528252808320805460ff60a01b1916600160a01b1790558383526013909152812060040180546001929061104a908490613049565b600081815260136020526040812060040180546001929061176e908490613049565b90915550506000908152601260209081526040808320338085529252909120805460ff60a01b199092166001600160a81b031990921691909117600160a01b179055565b600b546001600160a01b031633036118245760405162461bcd60e51b815260206004820152602f60248201527f446f6e6174696f6e732043616e204e6f74204265204d6164652042792054686560448201526e1021b7b73a3930b1ba1027bbb732b960891b6064820152608401610865565b671bc16d674ec800003410156118865760405162461bcd60e51b815260206004820152602160248201527f53656e742056616c75652042656c6f77204e696e696d756d20446f6e6174696f6044820152603760f91b6064820152608401610865565b600b546040516001600160a01b03909116903480156108fc02916000818181858888f193505050501580156118bf573d6000803e3d6000fd5b5034601060008282546118d29190613049565b9250508190555034601160008282546118eb9190613049565b9091555050336000818152601460205260409020600101546001600160a01b031603611962573360009081526014602052604081206002018054349290611933908490613049565b909155505033600090815260146020526040812060030180546001929061195b908490613049565b9091555050565b336000908152601460205260409020600c80548083556001019055600180820180546001600160a01b031916331790553460028301556003820180546000906119ac908490613049565b9091555050601580546001810182556000919091527f55f448fdea98c4d29eb340757ef0a66cd03dbb9538908a6a81d96026b71ec4750180546001600160a01b0319163317905550565b6000611a00611d5f565b5060115490565b611a0f611d5f565b6001600160a01b038116611a745760405162461bcd60e51b815260206004820152602660248201527f4f776e61626c653a206e6577206f776e657220697320746865207a65726f206160448201526564647265737360d01b6064820152608401610865565b61121081611e66565b60006001600160e01b0319821663780e9d6360e01b1480610732575061073282612118565b6000818152600260205260409020546001600160a01b03166112105760405162461bcd60e51b8152602060048201526018602482015277115490cdcc8c4e881a5b9d985b1a59081d1bdad95b88125160421b6044820152606401610865565b600081815260046020526040902080546001600160a01b0319166001600160a01b0384169081179091558190611b3682610e20565b6001600160a01b03167f8c5be1e5ebec7d5bd14f71427d1e84f3dd0314c0f7b2291e5b200ac8c7c3b92560405160405180910390a45050565b600080611b7b83610e20565b9050806001600160a01b0316846001600160a01b03161480611bc257506001600160a01b0380821660009081526005602090815260408083209388168352929052205460ff165b80611be65750836001600160a01b0316611bdb846107ca565b6001600160a01b0316145b949350505050565b826001600160a01b0316611c0182610e20565b6001600160a01b031614611c275760405162461bcd60e51b81526004016108659061305c565b6001600160a01b038216611c895760405162461bcd60e51b8152602060048201526024808201527f4552433732313a207472616e7366657220746f20746865207a65726f206164646044820152637265737360e01b6064820152608401610865565b611c968383836001612168565b826001600160a01b0316611ca982610e20565b6001600160a01b031614611ccf5760405162461bcd60e51b81526004016108659061305c565b600081815260046020908152604080832080546001600160a01b03199081169091556001600160a01b0387811680865260038552838620805460001901905590871680865283862080546001019055868652600290945282852080549092168417909155905184937fddf252ad1be2c89b69c2b068fc378daa952ba7f163c4a11628f55a4df523b3ef91a4505050565b600b546001600160a01b031633146110ea5760405162461bcd60e51b815260206004820181905260248201527f4f776e61626c653a2063616c6c6572206973206e6f7420746865206f776e65726044820152606401610865565b610f41828260405180602001604052806000815250612174565b6000828152600260205260409020546001600160a01b0316611e4e5760405162461bcd60e51b815260206004820152602e60248201527f45524337323155524953746f726167653a2055524920736574206f66206e6f6e60448201526d32bc34b9ba32b73a103a37b5b2b760911b6064820152608401610865565b6000828152600a602052604090206109068282612f76565b600b80546001600160a01b038381166001600160a01b0319831681179093556040519116919082907f8be0079c531659141344cd1fd0a4f28419497f9722a3daafe3b4186f6b6457e090600090a35050565b805480611f075760405162461bcd60e51b815260206004820152601b60248201527f436f756e7465723a2064656372656d656e74206f766572666c6f7700000000006044820152606401610865565b600019019055565b816001600160a01b0316836001600160a01b031603611f705760405162461bcd60e51b815260206004820152601960248201527f4552433732313a20617070726f766520746f2063616c6c6572000000000000006044820152606401610865565b6001600160a01b03838116600081815260056020908152604080832094871680845294825291829020805460ff191686151590811790915591519182527f17307eab39ab6107e8899845ad3d59bd9653f200f220920489ca2b5937696c31910160405180910390a3505050565b611fe8848484611bee565b611ff4848484846121a7565b6115815760405162461bcd60e51b8152600401610865906130a1565b606061201b82611aa2565b6000828152600a60205260408120805461203490612e5c565b80601f016020809104026020016040519081016040528092919081815260200182805461206090612e5c565b80156120ad5780601f10612082576101008083540402835291602001916120ad565b820191906000526020600020905b81548152906001019060200180831161209057829003601f168201915b5050505050905060006120cb60408051602081019091526000815290565b905080516000036120dd575092915050565b81511561210f5780826040516020016120f79291906130f3565b60405160208183030381529060405292505050919050565b611be6846122a8565b60006001600160e01b031982166380ac58cd60e01b148061214957506001600160e01b03198216635b5e139f60e01b145b8061073257506301ffc9a760e01b6001600160e01b0319831614610732565b6115818484848461231c565b61217e8383612450565b61218b60008484846121a7565b6109065760405162461bcd60e51b8152600401610865906130a1565b60006001600160a01b0384163b1561229d57604051630a85bd0160e11b81526001600160a01b0385169063150b7a02906121eb903390899088908890600401613122565b6020604051808303816000875af1925050508015612226575060408051601f3d908101601f191682019092526122239181019061315f565b60015b612283573d808015612254576040519150601f19603f3d011682016040523d82523d6000602084013e612259565b606091505b50805160000361227b5760405162461bcd60e51b8152600401610865906130a1565b805181602001fd5b6001600160e01b031916630a85bd0160e11b149050611be6565b506001949350505050565b60606122b382611aa2565b60006122ca60408051602081019091526000815290565b905060008151116122ea5760405180602001604052806000815250612315565b806122f4846125e9565b6040516020016123059291906130f3565b6040516020818303038152906040525b9392505050565b600181111561238b5760405162461bcd60e51b815260206004820152603560248201527f455243373231456e756d657261626c653a20636f6e7365637574697665207472604482015274185b9cd9995c9cc81b9bdd081cdd5c1c1bdc9d1959605a1b6064820152608401610865565b816001600160a01b0385166123e7576123e281600880546000838152600960205260408120829055600182018355919091527ff3f7a9fe364faab93b216da50a3214154f22a0a2b415b23a84c8169e8b636ee30155565b61240a565b836001600160a01b0316856001600160a01b03161461240a5761240a858261267c565b6001600160a01b0384166124265761242181612719565b612449565b846001600160a01b0316846001600160a01b0316146124495761244984826127c8565b5050505050565b6001600160a01b0382166124a65760405162461bcd60e51b815260206004820181905260248201527f4552433732313a206d696e7420746f20746865207a65726f20616464726573736044820152606401610865565b6000818152600260205260409020546001600160a01b03161561250b5760405162461bcd60e51b815260206004820152601c60248201527f4552433732313a20746f6b656e20616c7265616479206d696e746564000000006044820152606401610865565b612519600083836001612168565b6000818152600260205260409020546001600160a01b03161561257e5760405162461bcd60e51b815260206004820152601c60248201527f4552433732313a20746f6b656e20616c7265616479206d696e746564000000006044820152606401610865565b6001600160a01b038216600081815260036020908152604080832080546001019055848352600290915280822080546001600160a01b0319168417905551839291907fddf252ad1be2c89b69c2b068fc378daa952ba7f163c4a11628f55a4df523b3ef908290a45050565b606060006125f68361280c565b600101905060008167ffffffffffffffff81111561261657612616612b67565b6040519080825280601f01601f191660200182016040528015612640576020820181803683370190505b5090508181016020015b600019016f181899199a1a9b1b9c1cb0b131b232b360811b600a86061a8153600a850494508461264a57509392505050565b6000600161268984611052565b6126939190613036565b6000838152600760205260409020549091508082146126e6576001600160a01b03841660009081526006602090815260408083208584528252808320548484528184208190558352600790915290208190555b5060009182526007602090815260408084208490556001600160a01b039094168352600681528383209183525290812055565b60085460009061272b90600190613036565b6000838152600960205260408120546008805493945090928490811061275357612753612e96565b90600052602060002001549050806008838154811061277457612774612e96565b60009182526020808320909101929092558281526009909152604080822084905585825281205560088054806127ac576127ac61317c565b6001900381819060005260206000200160009055905550505050565b60006127d383611052565b6001600160a01b039093166000908152600660209081526040808320868452825280832085905593825260079052919091209190915550565b60008072184f03e93ff9f4daa797ed6e38ed64bf6a1f0160401b831061284b5772184f03e93ff9f4daa797ed6e38ed64bf6a1f0160401b830492506040015b6d04ee2d6d415b85acef81000000008310612877576d04ee2d6d415b85acef8100000000830492506020015b662386f26fc10000831061289557662386f26fc10000830492506010015b6305f5e10083106128ad576305f5e100830492506008015b61271083106128c157612710830492506004015b606483106128d3576064830492506002015b600a83106107325760010192915050565b5080546128f090612e5c565b6000825580601f10612900575050565b601f01602090049060005260206000209081019061121091905b8082111561292e576000815560010161291a565b5090565b6001600160e01b03198116811461121057600080fd5b60006020828403121561295a57600080fd5b813561231581612932565b60005b83811015612980578181015183820152602001612968565b50506000910152565b600081518084526129a1816020860160208601612965565b601f01601f19169290920160200192915050565b6020815260006123156020830184612989565b6000602082840312156129da57600080fd5b5035919050565b6001600160a01b038116811461121057600080fd5b60008060408385031215612a0957600080fd5b8235612a14816129e1565b946020939093013593505050565b60008060408385031215612a3557600080fd5b823591506020830135612a47816129e1565b809150509250929050565b6020808252825182820181905260009190848201906040850190845b81811015612a8a57835183529284019291840191600101612a6e565b50909695505050505050565b600080600060608486031215612aab57600080fd5b8335612ab6816129e1565b92506020840135612ac6816129e1565b929592945050506040919091013590565b8581526001600160a01b038516602082015260a060408201819052600090612b0190830186612989565b8281036060840152612b138186612989565b9150508260808301529695505050505050565b6020808252825182820181905260009190848201906040850190845b81811015612a8a5783516001600160a01b031683529284019291840191600101612b42565b634e487b7160e01b600052604160045260246000fd5b600067ffffffffffffffff80841115612b9857612b98612b67565b604051601f8501601f19908116603f01168101908282118183101715612bc057612bc0612b67565b81604052809350858152868686011115612bd957600080fd5b858560208301376000602087830101525050509392505050565b600082601f830112612c0457600080fd5b61231583833560208501612b7d565b60008060408385031215612c2657600080fd5b823567ffffffffffffffff80821115612c3e57600080fd5b612c4a86838701612bf3565b93506020850135915080821115612c6057600080fd5b50612c6d85828601612bf3565b9150509250929050565b600060208284031215612c8957600080fd5b813567ffffffffffffffff811115612ca057600080fd5b611be684828501612bf3565b600060208284031215612cbe57600080fd5b8135612315816129e1565b60006020808301818452808551808352604092508286019150828160051b87010184880160005b83811015612d6d57888303603f19018552815180518452878101516001600160a01b0316888501528681015160a088860181905290612d3182870182612989565b91505060608083015186830382880152612d4b8382612989565b6080948501519790940196909652505094870194925090860190600101612cf0565b509098975050505050505050565b60008060408385031215612d8e57600080fd5b8235612d99816129e1565b915060208301358015158114612a4757600080fd5b60008060008060808587031215612dc457600080fd5b8435612dcf816129e1565b93506020850135612ddf816129e1565b925060408501359150606085013567ffffffffffffffff811115612e0257600080fd5b8501601f81018713612e1357600080fd5b612e2287823560208401612b7d565b91505092959194509250565b60008060408385031215612e4157600080fd5b8235612e4c816129e1565b91506020830135612a47816129e1565b600181811c90821680612e7057607f821691505b602082108103612e9057634e487b7160e01b600052602260045260246000fd5b50919050565b634e487b7160e01b600052603260045260246000fd5b634e487b7160e01b600052601160045260246000fd5b600060018201612ed457612ed4612eac565b5060010190565b6020808252602d908201527f4552433732313a2063616c6c6572206973206e6f7420746f6b656e206f776e6560408201526c1c881bdc88185c1c1c9bdd9959609a1b606082015260800190565b601f82111561090657600081815260208120601f850160051c81016020861015612f4f5750805b601f850160051c820191505b81811015612f6e57828155600101612f5b565b505050505050565b815167ffffffffffffffff811115612f9057612f90612b67565b612fa481612f9e8454612e5c565b84612f28565b602080601f831160018114612fd95760008415612fc15750858301515b600019600386901b1c1916600185901b178555612f6e565b600085815260208120601f198616915b8281101561300857888601518255948401946001909101908401612fe9565b50858210156130265787850151600019600388901b60f8161c191681555b5050505050600190811b01905550565b8181038181111561073257610732612eac565b8082018082111561073257610732612eac565b60208082526025908201527f4552433732313a207472616e736665722066726f6d20696e636f72726563742060408201526437bbb732b960d91b606082015260800190565b60208082526032908201527f4552433732313a207472616e7366657220746f206e6f6e20455243373231526560408201527131b2b4bb32b91034b6b83632b6b2b73a32b960711b606082015260800190565b60008351613105818460208801612965565b835190830190613119818360208801612965565b01949350505050565b6001600160a01b038581168252841660208201526040810183905260806060820181905260009061315590830184612989565b9695505050505050565b60006020828403121561317157600080fd5b815161231581612932565b634e487b7160e01b600052603160045260246000fdfea26469706673582212208b6d897253216661ddc03e163e99d7bec9c62330ac094843ec3975bbd70b382964736f6c63430008130033",
    "bytecodeSha1": "02b5cdb99c433d119be74a2a50de695a6e9f98da",
    "compiler": {
        "evm_version": "istanbul",
        "optimizer": {
            "enabled": true,
            "runs": 200
        },
        "version": "0.8.19+commit.7dd6d404"
    },
    "contractName": "FundRaiser",
    "language": "Solidity",
    "natspec": {
        "kind": "dev",
        "methods": {
            "approve(address,uint256)": {
                "details": "See {IERC721-approve}."
            },
            "balanceOf(address)": {
                "details": "See {IERC721-balanceOf}."
            },
            "getApproved(uint256)": {
                "details": "See {IERC721-getApproved}."
            },
            "isApprovedForAll(address,address)": {
                "details": "See {IERC721-isApprovedForAll}."
            },
            "name()": {
                "details": "See {IERC721Metadata-name}."
            },
            "owner()": {
                "details": "Returns the address of the current owner."
            },
            "ownerOf(uint256)": {
                "details": "See {IERC721-ownerOf}."
            },
            "renounceOwnership()": {
                "details": "Leaves the contract without owner. It will not be possible to call `onlyOwner` functions anymore. Can only be called by the current owner. NOTE: Renouncing ownership will leave the contract without an owner, thereby removing any functionality that is only available to the owner."
            },
            "safeTransferFrom(address,address,uint256)": {
                "details": "See {IERC721-safeTransferFrom}."
            },
            "safeTransferFrom(address,address,uint256,bytes)": {
                "details": "See {IERC721-safeTransferFrom}."
            },
            "setApprovalForAll(address,bool)": {
                "details": "See {IERC721-setApprovalForAll}."
            },
            "symbol()": {
                "details": "See {IERC721Metadata-symbol}."
            },
            "tokenByIndex(uint256)": {
                "details": "See {IERC721Enumerable-tokenByIndex}."
            },
            "tokenOfOwnerByIndex(address,uint256)": {
                "details": "See {IERC721Enumerable-tokenOfOwnerByIndex}."
            },
            "totalSupply()": {
                "details": "See {IERC721Enumerable-totalSupply}."
            },
            "transferFrom(address,address,uint256)": {
                "details": "See {IERC721-transferFrom}."
            },
            "transferOwnership(address)": {
                "details": "Transfers ownership of the contract to a new account (`newOwner`). Can only be called by the current owner."
            }
        },
        "version": 1
    },
    "opcodes": "PUSH1 0x80 PUSH1 0x40 MSTORE PUSH1 0x4 CALLDATASIZE LT PUSH2 0x204 JUMPI PUSH1 0x0 CALLDATALOAD PUSH1 0xE0 SHR DUP1 PUSH4 0x6DC6F31A GT PUSH2 0x118 JUMPI DUP1 PUSH4 0xA22CB465 GT PUSH2 0xA0 JUMPI DUP1 PUSH4 0xD0398860 GT PUSH2 0x6F JUMPI DUP1 PUSH4 0xD0398860 EQ PUSH2 0x681 JUMPI DUP1 PUSH4 0xD917DEB5 EQ PUSH2 0x6A1 JUMPI DUP1 PUSH4 0xE432326F EQ PUSH2 0x6A9 JUMPI DUP1 PUSH4 0xE985E9C5 EQ PUSH2 0x6BE JUMPI DUP1 PUSH4 0xF2FDE38B EQ PUSH2 0x707 JUMPI PUSH1 0x0 DUP1 REVERT JUMPDEST DUP1 PUSH4 0xA22CB465 EQ PUSH2 0x60B JUMPI DUP1 PUSH4 0xACB5EC22 EQ PUSH2 0x62B JUMPI DUP1 PUSH4 0xB88D4FDE EQ PUSH2 0x641 JUMPI DUP1 PUSH4 0xC87B56DD EQ PUSH2 0x661 JUMPI PUSH1 0x0 DUP1 REVERT JUMPDEST DUP1 PUSH4 0x7B6AC530 GT PUSH2 0xE7 JUMPI DUP1 PUSH4 0x7B6AC530 EQ PUSH2 0x522 JUMPI DUP1 PUSH4 0x88219509 EQ PUSH2 0x542 JUMPI DUP1 PUSH4 0x8DA5CB5B EQ PUSH2 0x564 JUMPI DUP1 PUSH4 0x95D89B41 EQ PUSH2 0x582 JUMPI DUP1 PUSH4 0x99216FC2 EQ PUSH2 0x597 JUMPI PUSH1 0x0 DUP1 REVERT JUMPDEST DUP1 PUSH4 0x6DC6F31A EQ PUSH2 0x4BA JUMPI DUP1 PUSH4 0x70A08231 EQ PUSH2 0x4CD JUMPI DUP1 PUSH4 0x715018A6 EQ PUSH2 0x4ED JUMPI DUP1 PUSH4 0x75C16CB2 EQ PUSH2 0x502 JUMPI PUSH1 0x0 DUP1 REVERT JUMPDEST DUP1 PUSH4 0x23B872DD GT PUSH2 0x19B JUMPI DUP1 PUSH4 0x4842ED6A GT PUSH2 0x16A JUMPI DUP1 PUSH4 0x4842ED6A EQ PUSH2 0x418 JUMPI DUP1 PUSH4 0x4F6CCCE7 EQ PUSH2 0x43A JUMPI DUP1 PUSH4 0x5B7B0C14 EQ PUSH2 0x45A JUMPI DUP1 PUSH4 0x6352211E EQ PUSH2 0x47A JUMPI DUP1 PUSH4 0x695850FB EQ PUSH2 0x49A JUMPI PUSH1 0x0 DUP1 REVERT JUMPDEST DUP1 PUSH4 0x23B872DD EQ PUSH2 0x387 JUMPI DUP1 PUSH4 0x2F745C59 EQ PUSH2 0x3A7 JUMPI DUP1 PUSH4 0x39A0915C EQ PUSH2 0x3C7 JUMPI DUP1 PUSH4 0x42842E0E EQ PUSH2 0x3F8 JUMPI PUSH1 0x0 DUP1 REVERT JUMPDEST DUP1 PUSH4 0x16561642 GT PUSH2 0x1D7 JUMPI DUP1 PUSH4 0x16561642 EQ PUSH2 0x2BA JUMPI DUP1 PUSH4 0x18160DDD EQ PUSH2 0x2DA JUMPI DUP1 PUSH4 0x1B44BA44 EQ PUSH2 0x2F9 JUMPI DUP1 PUSH4 0x21B8B13C EQ PUSH2 0x365 JUMPI PUSH1 0x0 DUP1 REVERT JUMPDEST DUP1 PUSH4 0x1FFC9A7 EQ PUSH2 0x209 JUMPI DUP1 PUSH4 0x6FDDE03 EQ PUSH2 0x23E JUMPI DUP1 PUSH4 0x81812FC EQ PUSH2 0x260 JUMPI DUP1 PUSH4 0x95EA7B3 EQ PUSH2 0x298 JUMPI JUMPDEST PUSH1 0x0 DUP1 REVERT JUMPDEST CALLVALUE DUP1 ISZERO PUSH2 0x215 JUMPI PUSH1 0x0 DUP1 REVERT JUMPDEST POP PUSH2 0x229 PUSH2 0x224 CALLDATASIZE PUSH1 0x4 PUSH2 0x2948 JUMP JUMPDEST PUSH2 0x727 JUMP JUMPDEST PUSH1 0x40 MLOAD SWAP1 ISZERO ISZERO DUP2 MSTORE PUSH1 0x20 ADD JUMPDEST PUSH1 0x40 MLOAD DUP1 SWAP2 SUB SWAP1 RETURN JUMPDEST CALLVALUE DUP1 ISZERO PUSH2 0x24A JUMPI PUSH1 0x0 DUP1 REVERT JUMPDEST POP PUSH2 0x253 PUSH2 0x738 JUMP JUMPDEST PUSH1 0x40 MLOAD PUSH2 0x235 SWAP2 SWAP1 PUSH2 0x29B5 JUMP JUMPDEST CALLVALUE DUP1 ISZERO PUSH2 0x26C JUMPI PUSH1 0x0 DUP1 REVERT JUMPDEST POP PUSH2 0x280 PUSH2 0x27B CALLDATASIZE PUSH1 0x4 PUSH2 0x29C8 JUMP JUMPDEST PUSH2 0x7CA JUMP JUMPDEST PUSH1 0x40 MLOAD PUSH1 0x1 PUSH1 0x1 PUSH1 0xA0 SHL SUB SWAP1 SWAP2 AND DUP2 MSTORE PUSH1 0x20 ADD PUSH2 0x235 JUMP JUMPDEST CALLVALUE DUP1 ISZERO PUSH2 0x2A4 JUMPI PUSH1 0x0 DUP1 REVERT JUMPDEST POP PUSH2 0x2B8 PUSH2 0x2B3 CALLDATASIZE PUSH1 0x4 PUSH2 0x29F6 JUMP JUMPDEST PUSH2 0x7F1 JUMP JUMPDEST STOP JUMPDEST CALLVALUE DUP1 ISZERO PUSH2 0x2C6 JUMPI PUSH1 0x0 DUP1 REVERT JUMPDEST POP PUSH2 0x280 PUSH2 0x2D5 CALLDATASIZE PUSH1 0x4 PUSH2 0x29C8 JUMP JUMPDEST PUSH2 0x90B JUMP JUMPDEST CALLVALUE DUP1 ISZERO PUSH2 0x2E6 JUMPI PUSH1 0x0 DUP1 REVERT JUMPDEST POP PUSH1 0x8 SLOAD JUMPDEST PUSH1 0x40 MLOAD SWAP1 DUP2 MSTORE PUSH1 0x20 ADD PUSH2 0x235 JUMP JUMPDEST CALLVALUE DUP1 ISZERO PUSH2 0x305 JUMPI PUSH1 0x0 DUP1 REVERT JUMPDEST POP PUSH2 0x346 PUSH2 0x314 CALLDATASIZE PUSH1 0x4 PUSH2 0x2A22 JUMP JUMPDEST PUSH1 0x12 PUSH1 0x20 SWAP1 DUP2 MSTORE PUSH1 0x0 SWAP3 DUP4 MSTORE PUSH1 0x40 DUP1 DUP5 KECCAK256 SWAP1 SWAP2 MSTORE SWAP1 DUP3 MSTORE SWAP1 KECCAK256 SLOAD PUSH1 0x1 PUSH1 0x1 PUSH1 0xA0 SHL SUB DUP2 AND SWAP1 PUSH1 0x1 PUSH1 0xA0 SHL SWAP1 DIV PUSH1 0xFF AND DUP3 JUMP JUMPDEST PUSH1 0x40 DUP1 MLOAD PUSH1 0x1 PUSH1 0x1 PUSH1 0xA0 SHL SUB SWAP1 SWAP4 AND DUP4 MSTORE SWAP1 ISZERO ISZERO PUSH1 0x20 DUP4 ADD MSTORE ADD PUSH2 0x235 JUMP JUMPDEST CALLVALUE DUP1 ISZERO PUSH2 0x371 JUMPI PUSH1 0x0 DUP1 REVERT JUMPDEST POP PUSH2 0x37A PUSH2 0x935 JUMP JUMPDEST PUSH1 0x40 MLOAD PUSH2 0x235 SWAP2 SWAP1 PUSH2 0x2A52 JUMP JUMPDEST CALLVALUE DUP1 ISZERO PUSH2 0x393 JUMPI PUSH1 0x0 DUP1 REVERT JUMPDEST POP PUSH2 0x2B8 PUSH2 0x3A2 CALLDATASIZE PUSH1 0x4 PUSH2 0x2A96 JUMP JUMPDEST PUSH2 0x9D6 JUMP JUMPDEST CALLVALUE DUP1 ISZERO PUSH2 0x3B3 JUMPI PUSH1 0x0 DUP1 REVERT JUMPDEST POP PUSH2 0x2EB PUSH2 0x3C2 CALLDATASIZE PUSH1 0x4 PUSH2 0x29F6 JUMP JUMPDEST PUSH2 0xA07 JUMP JUMPDEST CALLVALUE DUP1 ISZERO PUSH2 0x3D3 JUMPI PUSH1 0x0 DUP1 REVERT JUMPDEST POP PUSH2 0x3E7 PUSH2 0x3E2 CALLDATASIZE PUSH1 0x4 PUSH2 0x29C8 JUMP JUMPDEST PUSH2 0xA9D JUMP JUMPDEST PUSH1 0x40 MLOAD PUSH2 0x235 SWAP6 SWAP5 SWAP4 SWAP3 SWAP2 SWAP1 PUSH2 0x2AD7 JUMP JUMPDEST CALLVALUE DUP1 ISZERO PUSH2 0x404 JUMPI PUSH1 0x0 DUP1 REVERT JUMPDEST POP PUSH2 0x2B8 PUSH2 0x413 CALLDATASIZE PUSH1 0x4 PUSH2 0x2A96 JUMP JUMPDEST PUSH2 0xBE6 JUMP JUMPDEST CALLVALUE DUP1 ISZERO PUSH2 0x424 JUMPI PUSH1 0x0 DUP1 REVERT JUMPDEST POP PUSH2 0x42D PUSH2 0xC01 JUMP JUMPDEST PUSH1 0x40 MLOAD PUSH2 0x235 SWAP2 SWAP1 PUSH2 0x2B26 JUMP JUMPDEST CALLVALUE DUP1 ISZERO PUSH2 0x446 JUMPI PUSH1 0x0 DUP1 REVERT JUMPDEST POP PUSH2 0x2EB PUSH2 0x455 CALLDATASIZE PUSH1 0x4 PUSH2 0x29C8 JUMP JUMPDEST PUSH2 0xCD5 JUMP JUMPDEST CALLVALUE DUP1 ISZERO PUSH2 0x466 JUMPI PUSH1 0x0 DUP1 REVERT JUMPDEST POP PUSH2 0x2B8 PUSH2 0x475 CALLDATASIZE PUSH1 0x4 PUSH2 0x2C13 JUMP JUMPDEST PUSH2 0xD68 JUMP JUMPDEST CALLVALUE DUP1 ISZERO PUSH2 0x486 JUMPI PUSH1 0x0 DUP1 REVERT JUMPDEST POP PUSH2 0x280 PUSH2 0x495 CALLDATASIZE PUSH1 0x4 PUSH2 0x29C8 JUMP JUMPDEST PUSH2 0xE20 JUMP JUMPDEST CALLVALUE DUP1 ISZERO PUSH2 0x4A6 JUMPI PUSH1 0x0 DUP1 REVERT JUMPDEST POP PUSH2 0x2B8 PUSH2 0x4B5 CALLDATASIZE PUSH1 0x4 PUSH2 0x2C77 JUMP JUMPDEST PUSH2 0xE80 JUMP JUMPDEST PUSH2 0x2B8 PUSH2 0x4C8 CALLDATASIZE PUSH1 0x4 PUSH2 0x2CAC JUMP JUMPDEST PUSH2 0xF45 JUMP JUMPDEST CALLVALUE DUP1 ISZERO PUSH2 0x4D9 JUMPI PUSH1 0x0 DUP1 REVERT JUMPDEST POP PUSH2 0x2EB PUSH2 0x4E8 CALLDATASIZE PUSH1 0x4 PUSH2 0x2CAC JUMP JUMPDEST PUSH2 0x1052 JUMP JUMPDEST CALLVALUE DUP1 ISZERO PUSH2 0x4F9 JUMPI PUSH1 0x0 DUP1 REVERT JUMPDEST POP PUSH2 0x2B8 PUSH2 0x10D8 JUMP JUMPDEST CALLVALUE DUP1 ISZERO PUSH2 0x50E JUMPI PUSH1 0x0 DUP1 REVERT JUMPDEST POP PUSH2 0x2B8 PUSH2 0x51D CALLDATASIZE PUSH1 0x4 PUSH2 0x29C8 JUMP JUMPDEST PUSH2 0x10EC JUMP JUMPDEST CALLVALUE DUP1 ISZERO PUSH2 0x52E JUMPI PUSH1 0x0 DUP1 REVERT JUMPDEST POP PUSH2 0x229 PUSH2 0x53D CALLDATASIZE PUSH1 0x4 PUSH2 0x29C8 JUMP JUMPDEST PUSH2 0x1213 JUMP JUMPDEST CALLVALUE DUP1 ISZERO PUSH2 0x54E JUMPI PUSH1 0x0 DUP1 REVERT JUMPDEST POP PUSH2 0x557 PUSH2 0x12C9 JUMP JUMPDEST PUSH1 0x40 MLOAD PUSH2 0x235 SWAP2 SWAP1 PUSH2 0x2CC9 JUMP JUMPDEST CALLVALUE DUP1 ISZERO PUSH2 0x570 JUMPI PUSH1 0x0 DUP1 REVERT JUMPDEST POP PUSH1 0xB SLOAD PUSH1 0x1 PUSH1 0x1 PUSH1 0xA0 SHL SUB AND PUSH2 0x280 JUMP JUMPDEST CALLVALUE DUP1 ISZERO PUSH2 0x58E JUMPI PUSH1 0x0 DUP1 REVERT JUMPDEST POP PUSH2 0x253 PUSH2 0x1535 JUMP JUMPDEST CALLVALUE DUP1 ISZERO PUSH2 0x5A3 JUMPI PUSH1 0x0 DUP1 REVERT JUMPDEST POP PUSH2 0x5E3 PUSH2 0x5B2 CALLDATASIZE PUSH1 0x4 PUSH2 0x2CAC JUMP JUMPDEST PUSH1 0x14 PUSH1 0x20 MSTORE PUSH1 0x0 SWAP1 DUP2 MSTORE PUSH1 0x40 SWAP1 KECCAK256 DUP1 SLOAD PUSH1 0x1 DUP3 ADD SLOAD PUSH1 0x2 DUP4 ADD SLOAD PUSH1 0x3 SWAP1 SWAP4 ADD SLOAD SWAP2 SWAP3 PUSH1 0x1 PUSH1 0x1 PUSH1 0xA0 SHL SUB SWAP1 SWAP2 AND SWAP2 DUP5 JUMP JUMPDEST PUSH1 0x40 DUP1 MLOAD SWAP5 DUP6 MSTORE PUSH1 0x1 PUSH1 0x1 PUSH1 0xA0 SHL SUB SWAP1 SWAP4 AND PUSH1 0x20 DUP6 ADD MSTORE SWAP2 DUP4 ADD MSTORE PUSH1 0x60 DUP3 ADD MSTORE PUSH1 0x80 ADD PUSH2 0x235 JUMP JUMPDEST CALLVALUE DUP1 ISZERO PUSH2 0x617 JUMPI PUSH1 0x0 DUP1 REVERT JUMPDEST POP PUSH2 0x2B8 PUSH2 0x626 CALLDATASIZE PUSH1 0x4 PUSH2 0x2D7B JUMP JUMPDEST PUSH2 0x1544 JUMP JUMPDEST CALLVALUE DUP1 ISZERO PUSH2 0x637 JUMPI PUSH1 0x0 DUP1 REVERT JUMPDEST POP PUSH2 0x2EB PUSH1 0x10 SLOAD DUP2 JUMP JUMPDEST CALLVALUE DUP1 ISZERO PUSH2 0x64D JUMPI PUSH1 0x0 DUP1 REVERT JUMPDEST POP PUSH2 0x2B8 PUSH2 0x65C CALLDATASIZE PUSH1 0x4 PUSH2 0x2DAE JUMP JUMPDEST PUSH2 0x154F JUMP JUMPDEST CALLVALUE DUP1 ISZERO PUSH2 0x66D JUMPI PUSH1 0x0 DUP1 REVERT JUMPDEST POP PUSH2 0x253 PUSH2 0x67C CALLDATASIZE PUSH1 0x4 PUSH2 0x29C8 JUMP JUMPDEST PUSH2 0x1587 JUMP JUMPDEST CALLVALUE DUP1 ISZERO PUSH2 0x68D JUMPI PUSH1 0x0 DUP1 REVERT JUMPDEST POP PUSH2 0x2B8 PUSH2 0x69C CALLDATASIZE PUSH1 0x4 PUSH2 0x29C8 JUMP JUMPDEST PUSH2 0x160F JUMP JUMPDEST PUSH2 0x2B8 PUSH2 0x17B2 JUMP JUMPDEST CALLVALUE DUP1 ISZERO PUSH2 0x6B5 JUMPI PUSH1 0x0 DUP1 REVERT JUMPDEST POP PUSH2 0x2EB PUSH2 0x19F6 JUMP JUMPDEST CALLVALUE DUP1 ISZERO PUSH2 0x6CA JUMPI PUSH1 0x0 DUP1 REVERT JUMPDEST POP PUSH2 0x229 PUSH2 0x6D9 CALLDATASIZE PUSH1 0x4 PUSH2 0x2E2E JUMP JUMPDEST PUSH1 0x1 PUSH1 0x1 PUSH1 0xA0 SHL SUB SWAP2 DUP3 AND PUSH1 0x0 SWAP1 DUP2 MSTORE PUSH1 0x5 PUSH1 0x20 SWAP1 DUP2 MSTORE PUSH1 0x40 DUP1 DUP4 KECCAK256 SWAP4 SWAP1 SWAP5 AND DUP3 MSTORE SWAP2 SWAP1 SWAP2 MSTORE KECCAK256 SLOAD PUSH1 0xFF AND SWAP1 JUMP JUMPDEST CALLVALUE DUP1 ISZERO PUSH2 0x713 JUMPI PUSH1 0x0 DUP1 REVERT JUMPDEST POP PUSH2 0x2B8 PUSH2 0x722 CALLDATASIZE PUSH1 0x4 PUSH2 0x2CAC JUMP JUMPDEST PUSH2 0x1A07 JUMP JUMPDEST PUSH1 0x0 PUSH2 0x732 DUP3 PUSH2 0x1A7D JUMP JUMPDEST SWAP3 SWAP2 POP POP JUMP JUMPDEST PUSH1 0x60 PUSH1 0x0 DUP1 SLOAD PUSH2 0x747 SWAP1 PUSH2 0x2E5C JUMP JUMPDEST DUP1 PUSH1 0x1F ADD PUSH1 0x20 DUP1 SWAP2 DIV MUL PUSH1 0x20 ADD PUSH1 0x40 MLOAD SWAP1 DUP2 ADD PUSH1 0x40 MSTORE DUP1 SWAP3 SWAP2 SWAP1 DUP2 DUP2 MSTORE PUSH1 0x20 ADD DUP3 DUP1 SLOAD PUSH2 0x773 SWAP1 PUSH2 0x2E5C JUMP JUMPDEST DUP1 ISZERO PUSH2 0x7C0 JUMPI DUP1 PUSH1 0x1F LT PUSH2 0x795 JUMPI PUSH2 0x100 DUP1 DUP4 SLOAD DIV MUL DUP4 MSTORE SWAP2 PUSH1 0x20 ADD SWAP2 PUSH2 0x7C0 JUMP JUMPDEST DUP3 ADD SWAP2 SWAP1 PUSH1 0x0 MSTORE PUSH1 0x20 PUSH1 0x0 KECCAK256 SWAP1 JUMPDEST DUP2 SLOAD DUP2 MSTORE SWAP1 PUSH1 0x1 ADD SWAP1 PUSH1 0x20 ADD DUP1 DUP4 GT PUSH2 0x7A3 JUMPI DUP3 SWAP1 SUB PUSH1 0x1F AND DUP3 ADD SWAP2 JUMPDEST POP POP POP POP POP SWAP1 POP SWAP1 JUMP JUMPDEST PUSH1 0x0 PUSH2 0x7D5 DUP3 PUSH2 0x1AA2 JUMP JUMPDEST POP PUSH1 0x0 SWAP1 DUP2 MSTORE PUSH1 0x4 PUSH1 0x20 MSTORE PUSH1 0x40 SWAP1 KECCAK256 SLOAD PUSH1 0x1 PUSH1 0x1 PUSH1 0xA0 SHL SUB AND SWAP1 JUMP JUMPDEST PUSH1 0x0 PUSH2 0x7FC DUP3 PUSH2 0xE20 JUMP JUMPDEST SWAP1 POP DUP1 PUSH1 0x1 PUSH1 0x1 PUSH1 0xA0 SHL SUB AND DUP4 PUSH1 0x1 PUSH1 0x1 PUSH1 0xA0 SHL SUB AND SUB PUSH2 0x86E JUMPI PUSH1 0x40 MLOAD PUSH3 0x461BCD PUSH1 0xE5 SHL DUP2 MSTORE PUSH1 0x20 PUSH1 0x4 DUP3 ADD MSTORE PUSH1 0x21 PUSH1 0x24 DUP3 ADD MSTORE PUSH32 0x4552433732313A20617070726F76616C20746F2063757272656E74206F776E65 PUSH1 0x44 DUP3 ADD MSTORE PUSH1 0x39 PUSH1 0xF9 SHL PUSH1 0x64 DUP3 ADD MSTORE PUSH1 0x84 ADD JUMPDEST PUSH1 0x40 MLOAD DUP1 SWAP2 SUB SWAP1 REVERT JUMPDEST CALLER PUSH1 0x1 PUSH1 0x1 PUSH1 0xA0 SHL SUB DUP3 AND EQ DUP1 PUSH2 0x88A JUMPI POP PUSH2 0x88A DUP2 CALLER PUSH2 0x6D9 JUMP JUMPDEST PUSH2 0x8FC JUMPI PUSH1 0x40 MLOAD PUSH3 0x461BCD PUSH1 0xE5 SHL DUP2 MSTORE PUSH1 0x20 PUSH1 0x4 DUP3 ADD MSTORE PUSH1 0x3D PUSH1 0x24 DUP3 ADD MSTORE PUSH32 0x4552433732313A20617070726F76652063616C6C6572206973206E6F7420746F PUSH1 0x44 DUP3 ADD MSTORE PUSH32 0x6B656E206F776E6572206F7220617070726F76656420666F7220616C6C000000 PUSH1 0x64 DUP3 ADD MSTORE PUSH1 0x84 ADD PUSH2 0x865 JUMP JUMPDEST PUSH2 0x906 DUP4 DUP4 PUSH2 0x1B01 JUMP JUMPDEST POP POP POP JUMP JUMPDEST PUSH1 0x15 DUP2 DUP2 SLOAD DUP2 LT PUSH2 0x91B JUMPI PUSH1 0x0 DUP1 REVERT JUMPDEST PUSH1 0x0 SWAP2 DUP3 MSTORE PUSH1 0x20 SWAP1 SWAP2 KECCAK256 ADD SLOAD PUSH1 0x1 PUSH1 0x1 PUSH1 0xA0 SHL SUB AND SWAP1 POP DUP2 JUMP JUMPDEST PUSH1 0x60 PUSH1 0x0 PUSH2 0x942 CALLER PUSH2 0x1052 JUMP JUMPDEST SWAP1 POP PUSH1 0x0 DUP2 PUSH8 0xFFFFFFFFFFFFFFFF DUP2 GT ISZERO PUSH2 0x95F JUMPI PUSH2 0x95F PUSH2 0x2B67 JUMP JUMPDEST PUSH1 0x40 MLOAD SWAP1 DUP1 DUP3 MSTORE DUP1 PUSH1 0x20 MUL PUSH1 0x20 ADD DUP3 ADD PUSH1 0x40 MSTORE DUP1 ISZERO PUSH2 0x988 JUMPI DUP2 PUSH1 0x20 ADD PUSH1 0x20 DUP3 MUL DUP1 CALLDATASIZE DUP4 CALLDATACOPY ADD SWAP1 POP JUMPDEST POP SWAP1 POP PUSH1 0x0 JUMPDEST DUP3 DUP2 LT ISZERO PUSH2 0x9CF JUMPI PUSH2 0x9A0 CALLER DUP3 PUSH2 0xA07 JUMP JUMPDEST DUP3 DUP3 DUP2 MLOAD DUP2 LT PUSH2 0x9B2 JUMPI PUSH2 0x9B2 PUSH2 0x2E96 JUMP JUMPDEST PUSH1 0x20 SWAP1 DUP2 MUL SWAP2 SWAP1 SWAP2 ADD ADD MSTORE DUP1 PUSH2 0x9C7 DUP2 PUSH2 0x2EC2 JUMP JUMPDEST SWAP2 POP POP PUSH2 0x98E JUMP JUMPDEST POP SWAP3 SWAP2 POP POP JUMP JUMPDEST PUSH2 0x9E0 CALLER DUP3 PUSH2 0x1B6F JUMP JUMPDEST PUSH2 0x9FC JUMPI PUSH1 0x40 MLOAD PUSH3 0x461BCD PUSH1 0xE5 SHL DUP2 MSTORE PUSH1 0x4 ADD PUSH2 0x865 SWAP1 PUSH2 0x2EDB JUMP JUMPDEST PUSH2 0x906 DUP4 DUP4 DUP4 PUSH2 0x1BEE JUMP JUMPDEST PUSH1 0x0 PUSH2 0xA12 DUP4 PUSH2 0x1052 JUMP JUMPDEST DUP3 LT PUSH2 0xA74 JUMPI PUSH1 0x40 MLOAD PUSH3 0x461BCD PUSH1 0xE5 SHL DUP2 MSTORE PUSH1 0x20 PUSH1 0x4 DUP3 ADD MSTORE PUSH1 0x2B PUSH1 0x24 DUP3 ADD MSTORE PUSH32 0x455243373231456E756D657261626C653A206F776E657220696E646578206F75 PUSH1 0x44 DUP3 ADD MSTORE PUSH11 0x74206F6620626F756E6473 PUSH1 0xA8 SHL PUSH1 0x64 DUP3 ADD MSTORE PUSH1 0x84 ADD PUSH2 0x865 JUMP JUMPDEST POP PUSH1 0x1 PUSH1 0x1 PUSH1 0xA0 SHL SUB SWAP2 SWAP1 SWAP2 AND PUSH1 0x0 SWAP1 DUP2 MSTORE PUSH1 0x6 PUSH1 0x20 SWAP1 DUP2 MSTORE PUSH1 0x40 DUP1 DUP4 KECCAK256 SWAP4 DUP4 MSTORE SWAP3 SWAP1 MSTORE KECCAK256 SLOAD SWAP1 JUMP JUMPDEST PUSH1 0x13 PUSH1 0x20 MSTORE PUSH1 0x0 SWAP1 DUP2 MSTORE PUSH1 0x40 SWAP1 KECCAK256 DUP1 SLOAD PUSH1 0x1 DUP3 ADD SLOAD PUSH1 0x2 DUP4 ADD DUP1 SLOAD SWAP3 SWAP4 PUSH1 0x1 PUSH1 0x1 PUSH1 0xA0 SHL SUB SWAP1 SWAP3 AND SWAP3 PUSH2 0xACF SWAP1 PUSH2 0x2E5C JUMP JUMPDEST DUP1 PUSH1 0x1F ADD PUSH1 0x20 DUP1 SWAP2 DIV MUL PUSH1 0x20 ADD PUSH1 0x40 MLOAD SWAP1 DUP2 ADD PUSH1 0x40 MSTORE DUP1 SWAP3 SWAP2 SWAP1 DUP2 DUP2 MSTORE PUSH1 0x20 ADD DUP3 DUP1 SLOAD PUSH2 0xAFB SWAP1 PUSH2 0x2E5C JUMP JUMPDEST DUP1 ISZERO PUSH2 0xB48 JUMPI DUP1 PUSH1 0x1F LT PUSH2 0xB1D JUMPI PUSH2 0x100 DUP1 DUP4 SLOAD DIV MUL DUP4 MSTORE SWAP2 PUSH1 0x20 ADD SWAP2 PUSH2 0xB48 JUMP JUMPDEST DUP3 ADD SWAP2 SWAP1 PUSH1 0x0 MSTORE PUSH1 0x20 PUSH1 0x0 KECCAK256 SWAP1 JUMPDEST DUP2 SLOAD DUP2 MSTORE SWAP1 PUSH1 0x1 ADD SWAP1 PUSH1 0x20 ADD DUP1 DUP4 GT PUSH2 0xB2B JUMPI DUP3 SWAP1 SUB PUSH1 0x1F AND DUP3 ADD SWAP2 JUMPDEST POP POP POP POP POP SWAP1 DUP1 PUSH1 0x3 ADD DUP1 SLOAD PUSH2 0xB5D SWAP1 PUSH2 0x2E5C JUMP JUMPDEST DUP1 PUSH1 0x1F ADD PUSH1 0x20 DUP1 SWAP2 DIV MUL PUSH1 0x20 ADD PUSH1 0x40 MLOAD SWAP1 DUP2 ADD PUSH1 0x40 MSTORE DUP1 SWAP3 SWAP2 SWAP1 DUP2 DUP2 MSTORE PUSH1 0x20 ADD DUP3 DUP1 SLOAD PUSH2 0xB89 SWAP1 PUSH2 0x2E5C JUMP JUMPDEST DUP1 ISZERO PUSH2 0xBD6 JUMPI DUP1 PUSH1 0x1F LT PUSH2 0xBAB JUMPI PUSH2 0x100 DUP1 DUP4 SLOAD DIV MUL DUP4 MSTORE SWAP2 PUSH1 0x20 ADD SWAP2 PUSH2 0xBD6 JUMP JUMPDEST DUP3 ADD SWAP2 SWAP1 PUSH1 0x0 MSTORE PUSH1 0x20 PUSH1 0x0 KECCAK256 SWAP1 JUMPDEST DUP2 SLOAD DUP2 MSTORE SWAP1 PUSH1 0x1 ADD SWAP1 PUSH1 0x20 ADD DUP1 DUP4 GT PUSH2 0xBB9 JUMPI DUP3 SWAP1 SUB PUSH1 0x1F AND DUP3 ADD SWAP2 JUMPDEST POP POP POP POP POP SWAP1 DUP1 PUSH1 0x4 ADD SLOAD SWAP1 POP DUP6 JUMP JUMPDEST PUSH2 0x906 DUP4 DUP4 DUP4 PUSH1 0x40 MLOAD DUP1 PUSH1 0x20 ADD PUSH1 0x40 MSTORE DUP1 PUSH1 0x0 DUP2 MSTORE POP PUSH2 0x154F JUMP JUMPDEST PUSH1 0x60 PUSH2 0xC0B PUSH2 0x1D5F JUMP JUMPDEST PUSH1 0x15 SLOAD PUSH1 0x0 SWAP1 PUSH8 0xFFFFFFFFFFFFFFFF DUP2 GT ISZERO PUSH2 0xC29 JUMPI PUSH2 0xC29 PUSH2 0x2B67 JUMP JUMPDEST PUSH1 0x40 MLOAD SWAP1 DUP1 DUP3 MSTORE DUP1 PUSH1 0x20 MUL PUSH1 0x20 ADD DUP3 ADD PUSH1 0x40 MSTORE DUP1 ISZERO PUSH2 0xC52 JUMPI DUP2 PUSH1 0x20 ADD PUSH1 0x20 DUP3 MUL DUP1 CALLDATASIZE DUP4 CALLDATACOPY ADD SWAP1 POP JUMPDEST POP SWAP1 POP PUSH1 0x0 JUMPDEST PUSH1 0x15 SLOAD DUP2 LT ISZERO PUSH2 0xCCF JUMPI PUSH1 0x15 DUP2 DUP2 SLOAD DUP2 LT PUSH2 0xC75 JUMPI PUSH2 0xC75 PUSH2 0x2E96 JUMP JUMPDEST SWAP1 PUSH1 0x0 MSTORE PUSH1 0x20 PUSH1 0x0 KECCAK256 ADD PUSH1 0x0 SWAP1 SLOAD SWAP1 PUSH2 0x100 EXP SWAP1 DIV PUSH1 0x1 PUSH1 0x1 PUSH1 0xA0 SHL SUB AND DUP3 DUP3 DUP2 MLOAD DUP2 LT PUSH2 0xCA5 JUMPI PUSH2 0xCA5 PUSH2 0x2E96 JUMP JUMPDEST PUSH1 0x1 PUSH1 0x1 PUSH1 0xA0 SHL SUB SWAP1 SWAP3 AND PUSH1 0x20 SWAP3 DUP4 MUL SWAP2 SWAP1 SWAP2 ADD SWAP1 SWAP2 ADD MSTORE DUP1 PUSH2 0xCC7 DUP2 PUSH2 0x2EC2 JUMP JUMPDEST SWAP2 POP POP PUSH2 0xC58 JUMP JUMPDEST POP SWAP1 POP SWAP1 JUMP JUMPDEST PUSH1 0x0 PUSH2 0xCE0 PUSH1 0x8 SLOAD SWAP1 JUMP JUMPDEST DUP3 LT PUSH2 0xD43 JUMPI PUSH1 0x40 MLOAD PUSH3 0x461BCD PUSH1 0xE5 SHL DUP2 MSTORE PUSH1 0x20 PUSH1 0x4 DUP3 ADD MSTORE PUSH1 0x2C PUSH1 0x24 DUP3 ADD MSTORE PUSH32 0x455243373231456E756D657261626C653A20676C6F62616C20696E646578206F PUSH1 0x44 DUP3 ADD MSTORE PUSH12 0x7574206F6620626F756E6473 PUSH1 0xA0 SHL PUSH1 0x64 DUP3 ADD MSTORE PUSH1 0x84 ADD PUSH2 0x865 JUMP JUMPDEST PUSH1 0x8 DUP3 DUP2 SLOAD DUP2 LT PUSH2 0xD56 JUMPI PUSH2 0xD56 PUSH2 0x2E96 JUMP JUMPDEST SWAP1 PUSH1 0x0 MSTORE PUSH1 0x20 PUSH1 0x0 KECCAK256 ADD SLOAD SWAP1 POP SWAP2 SWAP1 POP JUMP JUMPDEST PUSH1 0x0 DUP3 MLOAD GT PUSH2 0xDA8 JUMPI PUSH1 0x40 MLOAD PUSH3 0x461BCD PUSH1 0xE5 SHL DUP2 MSTORE PUSH1 0x20 PUSH1 0x4 DUP3 ADD MSTORE PUSH1 0xC PUSH1 0x24 DUP3 ADD MSTORE PUSH12 0x125B9D985B1A5908141BDCDD PUSH1 0xA2 SHL PUSH1 0x44 DUP3 ADD MSTORE PUSH1 0x64 ADD PUSH2 0x865 JUMP JUMPDEST PUSH1 0x0 PUSH1 0x13 PUSH1 0x0 PUSH2 0xDB7 PUSH1 0xD SLOAD SWAP1 JUMP JUMPDEST DUP2 MSTORE PUSH1 0x20 ADD SWAP1 DUP2 MSTORE PUSH1 0x20 ADD PUSH1 0x0 KECCAK256 SWAP1 POP PUSH2 0xDD0 PUSH1 0xD SLOAD SWAP1 JUMP JUMPDEST DUP2 SSTORE PUSH1 0x1 DUP2 ADD DUP1 SLOAD PUSH1 0x1 PUSH1 0x1 PUSH1 0xA0 SHL SUB NOT AND CALLER OR SWAP1 SSTORE PUSH1 0x2 DUP2 ADD PUSH2 0xDF4 DUP5 DUP3 PUSH2 0x2F76 JUMP JUMPDEST POP PUSH1 0x3 DUP2 ADD PUSH2 0xE03 DUP4 DUP3 PUSH2 0x2F76 JUMP JUMPDEST POP PUSH2 0xE12 PUSH1 0xD DUP1 SLOAD PUSH1 0x1 ADD SWAP1 SSTORE JUMP JUMPDEST PUSH2 0x906 PUSH1 0xE DUP1 SLOAD PUSH1 0x1 ADD SWAP1 SSTORE JUMP JUMPDEST PUSH1 0x0 DUP2 DUP2 MSTORE PUSH1 0x2 PUSH1 0x20 MSTORE PUSH1 0x40 DUP2 KECCAK256 SLOAD PUSH1 0x1 PUSH1 0x1 PUSH1 0xA0 SHL SUB AND DUP1 PUSH2 0x732 JUMPI PUSH1 0x40 MLOAD PUSH3 0x461BCD PUSH1 0xE5 SHL DUP2 MSTORE PUSH1 0x20 PUSH1 0x4 DUP3 ADD MSTORE PUSH1 0x18 PUSH1 0x24 DUP3 ADD MSTORE PUSH24 0x115490CDCC8C4E881A5B9D985B1A59081D1BDAD95B881251 PUSH1 0x42 SHL PUSH1 0x44 DUP3 ADD MSTORE PUSH1 0x64 ADD PUSH2 0x865 JUMP JUMPDEST PUSH1 0x1 PUSH2 0xE8B CALLER PUSH2 0x1052 JUMP JUMPDEST CALLER PUSH1 0x0 SWAP1 DUP2 MSTORE PUSH1 0x14 PUSH1 0x20 MSTORE PUSH1 0x40 SWAP1 KECCAK256 PUSH1 0x3 ADD SLOAD PUSH2 0xEA8 SWAP2 SWAP1 PUSH2 0x3036 JUMP JUMPDEST LT ISZERO PUSH2 0xF12 JUMPI PUSH1 0x40 MLOAD PUSH3 0x461BCD PUSH1 0xE5 SHL DUP2 MSTORE PUSH1 0x20 PUSH1 0x4 DUP3 ADD MSTORE PUSH1 0x33 PUSH1 0x24 DUP3 ADD MSTORE PUSH32 0x54686520436F6E6E6563746564206163636F756E74206973204E6F7420656C69 PUSH1 0x44 DUP3 ADD MSTORE PUSH19 0x33B4B13632903A379026B4B73A103A37B5B2B7 PUSH1 0x69 SHL PUSH1 0x64 DUP3 ADD MSTORE PUSH1 0x84 ADD PUSH2 0x865 JUMP JUMPDEST PUSH1 0x0 PUSH2 0xF1D PUSH1 0xF SLOAD SWAP1 JUMP JUMPDEST SWAP1 POP PUSH2 0xF2D PUSH1 0xF DUP1 SLOAD PUSH1 0x1 ADD SWAP1 SSTORE JUMP JUMPDEST PUSH2 0xF37 CALLER DUP3 PUSH2 0x1DB9 JUMP JUMPDEST PUSH2 0xF41 DUP2 DUP4 PUSH2 0x1DD3 JUMP JUMPDEST POP POP JUMP JUMPDEST PUSH2 0xF4D PUSH2 0x1D5F JUMP JUMPDEST PUSH1 0x1 PUSH1 0x1 PUSH1 0xA0 SHL SUB DUP2 AND CALLER SUB PUSH2 0xFB1 JUMPI PUSH1 0x40 MLOAD PUSH3 0x461BCD PUSH1 0xE5 SHL DUP2 MSTORE PUSH1 0x20 PUSH1 0x4 DUP3 ADD MSTORE PUSH1 0x24 DUP1 DUP3 ADD MSTORE PUSH32 0x5472616E7366657220546F204F776E204163636F756E74204973204E6F742056 PUSH1 0x44 DUP3 ADD MSTORE PUSH4 0x185B1A59 PUSH1 0xE2 SHL PUSH1 0x64 DUP3 ADD MSTORE PUSH1 0x84 ADD PUSH2 0x865 JUMP JUMPDEST PUSH1 0x11 SLOAD CALLVALUE LT PUSH2 0x1002 JUMPI PUSH1 0x40 MLOAD PUSH3 0x461BCD PUSH1 0xE5 SHL DUP2 MSTORE PUSH1 0x20 PUSH1 0x4 DUP3 ADD MSTORE PUSH1 0x1A PUSH1 0x24 DUP3 ADD MSTORE PUSH32 0x5769746864726177616C204C696D697473204578636365646564000000000000 PUSH1 0x44 DUP3 ADD MSTORE PUSH1 0x64 ADD PUSH2 0x865 JUMP JUMPDEST PUSH1 0x40 MLOAD PUSH1 0x1 PUSH1 0x1 PUSH1 0xA0 SHL SUB DUP3 AND SWAP1 CALLVALUE DUP1 ISZERO PUSH2 0x8FC MUL SWAP2 PUSH1 0x0 DUP2 DUP2 DUP2 DUP6 DUP9 DUP9 CALL SWAP4 POP POP POP POP ISZERO DUP1 ISZERO PUSH2 0x1037 JUMPI RETURNDATASIZE PUSH1 0x0 DUP1 RETURNDATACOPY RETURNDATASIZE PUSH1 0x0 REVERT JUMPDEST POP CALLVALUE PUSH1 0x11 PUSH1 0x0 DUP3 DUP3 SLOAD PUSH2 0x104A SWAP2 SWAP1 PUSH2 0x3036 JUMP JUMPDEST SWAP1 SWAP2 SSTORE POP POP POP JUMP JUMPDEST PUSH1 0x0 PUSH1 0x1 PUSH1 0x1 PUSH1 0xA0 SHL SUB DUP3 AND PUSH2 0x10BC JUMPI PUSH1 0x40 MLOAD PUSH3 0x461BCD PUSH1 0xE5 SHL DUP2 MSTORE PUSH1 0x20 PUSH1 0x4 DUP3 ADD MSTORE PUSH1 0x29 PUSH1 0x24 DUP3 ADD MSTORE PUSH32 0x4552433732313A2061646472657373207A65726F206973206E6F742061207661 PUSH1 0x44 DUP3 ADD MSTORE PUSH9 0x3634B21037BBB732B9 PUSH1 0xB9 SHL PUSH1 0x64 DUP3 ADD MSTORE PUSH1 0x84 ADD PUSH2 0x865 JUMP JUMPDEST POP PUSH1 0x1 PUSH1 0x1 PUSH1 0xA0 SHL SUB AND PUSH1 0x0 SWAP1 DUP2 MSTORE PUSH1 0x3 PUSH1 0x20 MSTORE PUSH1 0x40 SWAP1 KECCAK256 SLOAD SWAP1 JUMP JUMPDEST PUSH2 0x10E0 PUSH2 0x1D5F JUMP JUMPDEST PUSH2 0x10EA PUSH1 0x0 PUSH2 0x1E66 JUMP JUMPDEST JUMP JUMPDEST PUSH1 0x0 DUP2 DUP2 MSTORE PUSH1 0x13 PUSH1 0x20 MSTORE PUSH1 0x40 SWAP1 KECCAK256 SLOAD DUP2 EQ PUSH2 0x1149 JUMPI PUSH1 0x40 MLOAD PUSH3 0x461BCD PUSH1 0xE5 SHL DUP2 MSTORE PUSH1 0x20 PUSH1 0x4 DUP3 ADD MSTORE PUSH1 0x1D PUSH1 0x24 DUP3 ADD MSTORE PUSH32 0x496E76616C69642E2E20506F737420446F6573204E6F74204578697374000000 PUSH1 0x44 DUP3 ADD MSTORE PUSH1 0x64 ADD PUSH2 0x865 JUMP JUMPDEST PUSH1 0x0 DUP2 DUP2 MSTORE PUSH1 0x13 PUSH1 0x20 MSTORE PUSH1 0x40 SWAP1 KECCAK256 PUSH1 0x1 ADD SLOAD PUSH1 0x1 PUSH1 0x1 PUSH1 0xA0 SHL SUB AND CALLER EQ PUSH2 0x11BD JUMPI PUSH1 0x40 MLOAD PUSH3 0x461BCD PUSH1 0xE5 SHL DUP2 MSTORE PUSH1 0x20 PUSH1 0x4 DUP3 ADD MSTORE PUSH1 0x22 PUSH1 0x24 DUP3 ADD MSTORE PUSH32 0x4163636F756E7420556E6174687572697A656420546F2044656C65746520506F PUSH1 0x44 DUP3 ADD MSTORE PUSH2 0x1CDD PUSH1 0xF2 SHL PUSH1 0x64 DUP3 ADD MSTORE PUSH1 0x84 ADD PUSH2 0x865 JUMP JUMPDEST PUSH1 0x0 DUP2 DUP2 MSTORE PUSH1 0x13 PUSH1 0x20 MSTORE PUSH1 0x40 DUP2 KECCAK256 DUP2 DUP2 SSTORE PUSH1 0x1 DUP2 ADD DUP1 SLOAD PUSH1 0x1 PUSH1 0x1 PUSH1 0xA0 SHL SUB NOT AND SWAP1 SSTORE SWAP1 PUSH2 0x11EE PUSH1 0x2 DUP4 ADD DUP3 PUSH2 0x28E4 JUMP JUMPDEST PUSH2 0x11FC PUSH1 0x3 DUP4 ADD PUSH1 0x0 PUSH2 0x28E4 JUMP JUMPDEST PUSH1 0x4 DUP3 ADD PUSH1 0x0 SWAP1 SSTORE POP POP PUSH2 0x1210 PUSH1 0xE PUSH2 0x1EB8 JUMP JUMPDEST POP JUMP JUMPDEST PUSH1 0x0 DUP2 DUP2 MSTORE PUSH1 0x13 PUSH1 0x20 MSTORE PUSH1 0x40 DUP2 KECCAK256 SLOAD DUP3 EQ PUSH2 0x1270 JUMPI PUSH1 0x40 MLOAD PUSH3 0x461BCD PUSH1 0xE5 SHL DUP2 MSTORE PUSH1 0x20 PUSH1 0x4 DUP3 ADD MSTORE PUSH1 0x19 PUSH1 0x24 DUP3 ADD MSTORE PUSH32 0x696E76616C696420506F737420446F204E6F7420457869737400000000000000 PUSH1 0x44 DUP3 ADD MSTORE PUSH1 0x64 ADD PUSH2 0x865 JUMP JUMPDEST PUSH1 0x0 DUP3 DUP2 MSTORE PUSH1 0x12 PUSH1 0x20 SWAP1 DUP2 MSTORE PUSH1 0x40 DUP1 DUP4 KECCAK256 CALLER DUP1 DUP6 MSTORE SWAP3 MSTORE SWAP1 SWAP2 KECCAK256 SLOAD PUSH1 0x1 PUSH1 0x1 PUSH1 0xA0 SHL SUB AND EQ PUSH2 0x12A1 JUMPI POP PUSH1 0x0 SWAP2 SWAP1 POP JUMP JUMPDEST POP PUSH1 0x0 SWAP1 DUP2 MSTORE PUSH1 0x12 PUSH1 0x20 SWAP1 DUP2 MSTORE PUSH1 0x40 DUP1 DUP4 KECCAK256 CALLER DUP5 MSTORE SWAP1 SWAP2 MSTORE SWAP1 KECCAK256 SLOAD PUSH1 0x1 PUSH1 0xA0 SHL SWAP1 DIV PUSH1 0xFF AND SWAP1 JUMP JUMPDEST PUSH1 0x60 PUSH1 0x0 DUP1 PUSH2 0x12D7 PUSH1 0xE SLOAD SWAP1 JUMP JUMPDEST PUSH8 0xFFFFFFFFFFFFFFFF DUP2 GT ISZERO PUSH2 0x12EF JUMPI PUSH2 0x12EF PUSH2 0x2B67 JUMP JUMPDEST PUSH1 0x40 MLOAD SWAP1 DUP1 DUP3 MSTORE DUP1 PUSH1 0x20 MUL PUSH1 0x20 ADD DUP3 ADD PUSH1 0x40 MSTORE DUP1 ISZERO PUSH2 0x135B JUMPI DUP2 PUSH1 0x20 ADD JUMPDEST PUSH2 0x1348 PUSH1 0x40 MLOAD DUP1 PUSH1 0xA0 ADD PUSH1 0x40 MSTORE DUP1 PUSH1 0x0 DUP2 MSTORE PUSH1 0x20 ADD PUSH1 0x0 PUSH1 0x1 PUSH1 0x1 PUSH1 0xA0 SHL SUB AND DUP2 MSTORE PUSH1 0x20 ADD PUSH1 0x60 DUP2 MSTORE PUSH1 0x20 ADD PUSH1 0x60 DUP2 MSTORE PUSH1 0x20 ADD PUSH1 0x0 DUP2 MSTORE POP SWAP1 JUMP JUMPDEST DUP2 MSTORE PUSH1 0x20 ADD SWAP1 PUSH1 0x1 SWAP1 SUB SWAP1 DUP2 PUSH2 0x130D JUMPI SWAP1 POP JUMPDEST POP SWAP1 POP PUSH1 0x0 JUMPDEST PUSH1 0xD SLOAD DUP2 LT ISZERO PUSH2 0x9CF JUMPI PUSH1 0x0 DUP2 DUP2 MSTORE PUSH1 0x13 PUSH1 0x20 MSTORE PUSH1 0x40 DUP2 KECCAK256 PUSH1 0x2 ADD DUP1 SLOAD PUSH2 0x1387 SWAP1 PUSH2 0x2E5C JUMP JUMPDEST SWAP1 POP GT ISZERO PUSH2 0x1523 JUMPI PUSH1 0x0 DUP2 DUP2 MSTORE PUSH1 0x13 PUSH1 0x20 SWAP1 DUP2 MSTORE PUSH1 0x40 SWAP2 DUP3 SWAP1 KECCAK256 DUP3 MLOAD PUSH1 0xA0 DUP2 ADD DUP5 MSTORE DUP2 SLOAD DUP2 MSTORE PUSH1 0x1 DUP3 ADD SLOAD PUSH1 0x1 PUSH1 0x1 PUSH1 0xA0 SHL SUB AND SWAP3 DUP2 ADD SWAP3 SWAP1 SWAP3 MSTORE PUSH1 0x2 DUP2 ADD DUP1 SLOAD SWAP3 SWAP4 SWAP2 SWAP3 SWAP2 DUP5 ADD SWAP2 PUSH2 0x13D9 SWAP1 PUSH2 0x2E5C JUMP JUMPDEST DUP1 PUSH1 0x1F ADD PUSH1 0x20 DUP1 SWAP2 DIV MUL PUSH1 0x20 ADD PUSH1 0x40 MLOAD SWAP1 DUP2 ADD PUSH1 0x40 MSTORE DUP1 SWAP3 SWAP2 SWAP1 DUP2 DUP2 MSTORE PUSH1 0x20 ADD DUP3 DUP1 SLOAD PUSH2 0x1405 SWAP1 PUSH2 0x2E5C JUMP JUMPDEST DUP1 ISZERO PUSH2 0x1452 JUMPI DUP1 PUSH1 0x1F LT PUSH2 0x1427 JUMPI PUSH2 0x100 DUP1 DUP4 SLOAD DIV MUL DUP4 MSTORE SWAP2 PUSH1 0x20 ADD SWAP2 PUSH2 0x1452 JUMP JUMPDEST DUP3 ADD SWAP2 SWAP1 PUSH1 0x0 MSTORE PUSH1 0x20 PUSH1 0x0 KECCAK256 SWAP1 JUMPDEST DUP2 SLOAD DUP2 MSTORE SWAP1 PUSH1 0x1 ADD SWAP1 PUSH1 0x20 ADD DUP1 DUP4 GT PUSH2 0x1435 JUMPI DUP3 SWAP1 SUB PUSH1 0x1F AND DUP3 ADD SWAP2 JUMPDEST POP POP POP POP POP DUP2 MSTORE PUSH1 0x20 ADD PUSH1 0x3 DUP3 ADD DUP1 SLOAD PUSH2 0x146B SWAP1 PUSH2 0x2E5C JUMP JUMPDEST DUP1 PUSH1 0x1F ADD PUSH1 0x20 DUP1 SWAP2 DIV MUL PUSH1 0x20 ADD PUSH1 0x40 MLOAD SWAP1 DUP2 ADD PUSH1 0x40 MSTORE DUP1 SWAP3 SWAP2 SWAP1 DUP2 DUP2 MSTORE PUSH1 0x20 ADD DUP3 DUP1 SLOAD PUSH2 0x1497 SWAP1 PUSH2 0x2E5C JUMP JUMPDEST DUP1 ISZERO PUSH2 0x14E4 JUMPI DUP1 PUSH1 0x1F LT PUSH2 0x14B9 JUMPI PUSH2 0x100 DUP1 DUP4 SLOAD DIV MUL DUP4 MSTORE SWAP2 PUSH1 0x20 ADD SWAP2 PUSH2 0x14E4 JUMP JUMPDEST DUP3 ADD SWAP2 SWAP1 PUSH1 0x0 MSTORE PUSH1 0x20 PUSH1 0x0 KECCAK256 SWAP1 JUMPDEST DUP2 SLOAD DUP2 MSTORE SWAP1 PUSH1 0x1 ADD SWAP1 PUSH1 0x20 ADD DUP1 DUP4 GT PUSH2 0x14C7 JUMPI DUP3 SWAP1 SUB PUSH1 0x1F AND DUP3 ADD SWAP2 JUMPDEST POP POP POP POP POP DUP2 MSTORE PUSH1 0x20 ADD PUSH1 0x4 DUP3 ADD SLOAD DUP2 MSTORE POP POP DUP3 DUP5 DUP2 MLOAD DUP2 LT PUSH2 0x1509 JUMPI PUSH2 0x1509 PUSH2 0x2E96 JUMP JUMPDEST PUSH1 0x20 MUL PUSH1 0x20 ADD ADD DUP2 SWAP1 MSTORE POP DUP3 DUP1 PUSH2 0x151F SWAP1 PUSH2 0x2EC2 JUMP JUMPDEST SWAP4 POP POP JUMPDEST DUP1 PUSH2 0x152D DUP2 PUSH2 0x2EC2 JUMP JUMPDEST SWAP2 POP POP PUSH2 0x1361 JUMP JUMPDEST PUSH1 0x60 PUSH1 0x1 DUP1 SLOAD PUSH2 0x747 SWAP1 PUSH2 0x2E5C JUMP JUMPDEST PUSH2 0xF41 CALLER DUP4 DUP4 PUSH2 0x1F0F JUMP JUMPDEST PUSH2 0x1559 CALLER DUP4 PUSH2 0x1B6F JUMP JUMPDEST PUSH2 0x1575 JUMPI PUSH1 0x40 MLOAD PUSH3 0x461BCD PUSH1 0xE5 SHL DUP2 MSTORE PUSH1 0x4 ADD PUSH2 0x865 SWAP1 PUSH2 0x2EDB JUMP JUMPDEST PUSH2 0x1581 DUP5 DUP5 DUP5 DUP5 PUSH2 0x1FDD JUMP JUMPDEST POP POP POP POP JUMP JUMPDEST PUSH1 0x0 DUP2 DUP2 MSTORE PUSH1 0x2 PUSH1 0x20 MSTORE PUSH1 0x40 SWAP1 KECCAK256 SLOAD PUSH1 0x60 SWAP1 PUSH1 0x1 PUSH1 0x1 PUSH1 0xA0 SHL SUB AND PUSH2 0x1606 JUMPI PUSH1 0x40 MLOAD PUSH3 0x461BCD PUSH1 0xE5 SHL DUP2 MSTORE PUSH1 0x20 PUSH1 0x4 DUP3 ADD MSTORE PUSH1 0x2F PUSH1 0x24 DUP3 ADD MSTORE PUSH32 0x4552433732314D657461646174613A2055524920717565727920666F72206E6F PUSH1 0x44 DUP3 ADD MSTORE PUSH15 0x3732BC34B9BA32B73A103A37B5B2B7 PUSH1 0x89 SHL PUSH1 0x64 DUP3 ADD MSTORE PUSH1 0x84 ADD PUSH2 0x865 JUMP JUMPDEST PUSH2 0x732 DUP3 PUSH2 0x2010 JUMP JUMPDEST PUSH1 0x0 DUP2 DUP2 MSTORE PUSH1 0x13 PUSH1 0x20 MSTORE PUSH1 0x40 SWAP1 KECCAK256 SLOAD DUP2 EQ PUSH2 0x166C JUMPI PUSH1 0x40 MLOAD PUSH3 0x461BCD PUSH1 0xE5 SHL DUP2 MSTORE PUSH1 0x20 PUSH1 0x4 DUP3 ADD MSTORE PUSH1 0x19 PUSH1 0x24 DUP3 ADD MSTORE PUSH32 0x496E76616C696420506F737420446F204E6F7420457869737400000000000000 PUSH1 0x44 DUP3 ADD MSTORE PUSH1 0x64 ADD PUSH2 0x865 JUMP JUMPDEST PUSH1 0x0 DUP2 DUP2 MSTORE PUSH1 0x12 PUSH1 0x20 SWAP1 DUP2 MSTORE PUSH1 0x40 DUP1 DUP4 KECCAK256 CALLER DUP1 DUP6 MSTORE SWAP3 MSTORE SWAP1 SWAP2 KECCAK256 SLOAD PUSH1 0x1 PUSH1 0x1 PUSH1 0xA0 SHL SUB AND SUB PUSH2 0x174C JUMPI PUSH1 0x0 DUP2 DUP2 MSTORE PUSH1 0x12 PUSH1 0x20 SWAP1 DUP2 MSTORE PUSH1 0x40 DUP1 DUP4 KECCAK256 CALLER DUP5 MSTORE SWAP1 SWAP2 MSTORE SWAP1 KECCAK256 SLOAD PUSH1 0x1 PUSH1 0xA0 SHL SWAP1 DIV PUSH1 0xFF AND ISZERO ISZERO PUSH1 0x1 SUB PUSH2 0x1704 JUMPI PUSH1 0x0 DUP2 DUP2 MSTORE PUSH1 0x12 PUSH1 0x20 SWAP1 DUP2 MSTORE PUSH1 0x40 DUP1 DUP4 KECCAK256 CALLER DUP5 MSTORE DUP3 MSTORE DUP1 DUP4 KECCAK256 DUP1 SLOAD PUSH1 0xFF PUSH1 0xA0 SHL NOT AND SWAP1 SSTORE DUP4 DUP4 MSTORE PUSH1 0x13 SWAP1 SWAP2 MSTORE DUP2 KECCAK256 PUSH1 0x4 ADD DUP1 SLOAD PUSH1 0x1 SWAP3 SWAP1 PUSH2 0x104A SWAP1 DUP5 SWAP1 PUSH2 0x3036 JUMP JUMPDEST PUSH1 0x0 DUP2 DUP2 MSTORE PUSH1 0x12 PUSH1 0x20 SWAP1 DUP2 MSTORE PUSH1 0x40 DUP1 DUP4 KECCAK256 CALLER DUP5 MSTORE DUP3 MSTORE DUP1 DUP4 KECCAK256 DUP1 SLOAD PUSH1 0xFF PUSH1 0xA0 SHL NOT AND PUSH1 0x1 PUSH1 0xA0 SHL OR SWAP1 SSTORE DUP4 DUP4 MSTORE PUSH1 0x13 SWAP1 SWAP2 MSTORE DUP2 KECCAK256 PUSH1 0x4 ADD DUP1 SLOAD PUSH1 0x1 SWAP3 SWAP1 PUSH2 0x104A SWAP1 DUP5 SWAP1 PUSH2 0x3049 JUMP JUMPDEST PUSH1 0x0 DUP2 DUP2 MSTORE PUSH1 0x13 PUSH1 0x20 MSTORE PUSH1 0x40 DUP2 KECCAK256 PUSH1 0x4 ADD DUP1 SLOAD PUSH1 0x1 SWAP3 SWAP1 PUSH2 0x176E SWAP1 DUP5 SWAP1 PUSH2 0x3049 JUMP JUMPDEST SWAP1 SWAP2 SSTORE POP POP PUSH1 0x0 SWAP1 DUP2 MSTORE PUSH1 0x12 PUSH1 0x20 SWAP1 DUP2 MSTORE PUSH1 0x40 DUP1 DUP4 KECCAK256 CALLER DUP1 DUP6 MSTORE SWAP3 MSTORE SWAP1 SWAP2 KECCAK256 DUP1 SLOAD PUSH1 0xFF PUSH1 0xA0 SHL NOT SWAP1 SWAP3 AND PUSH1 0x1 PUSH1 0x1 PUSH1 0xA8 SHL SUB NOT SWAP1 SWAP3 AND SWAP2 SWAP1 SWAP2 OR PUSH1 0x1 PUSH1 0xA0 SHL OR SWAP1 SSTORE JUMP JUMPDEST PUSH1 0xB SLOAD PUSH1 0x1 PUSH1 0x1 PUSH1 0xA0 SHL SUB AND CALLER SUB PUSH2 0x1824 JUMPI PUSH1 0x40 MLOAD PUSH3 0x461BCD PUSH1 0xE5 SHL DUP2 MSTORE PUSH1 0x20 PUSH1 0x4 DUP3 ADD MSTORE PUSH1 0x2F PUSH1 0x24 DUP3 ADD MSTORE PUSH32 0x446F6E6174696F6E732043616E204E6F74204265204D61646520427920546865 PUSH1 0x44 DUP3 ADD MSTORE PUSH15 0x1021B7B73A3930B1BA1027BBB732B9 PUSH1 0x89 SHL PUSH1 0x64 DUP3 ADD MSTORE PUSH1 0x84 ADD PUSH2 0x865 JUMP JUMPDEST PUSH8 0x1BC16D674EC80000 CALLVALUE LT ISZERO PUSH2 0x1886 JUMPI PUSH1 0x40 MLOAD PUSH3 0x461BCD PUSH1 0xE5 SHL DUP2 MSTORE PUSH1 0x20 PUSH1 0x4 DUP3 ADD MSTORE PUSH1 0x21 PUSH1 0x24 DUP3 ADD MSTORE PUSH32 0x53656E742056616C75652042656C6F77204E696E696D756D20446F6E6174696F PUSH1 0x44 DUP3 ADD MSTORE PUSH1 0x37 PUSH1 0xF9 SHL PUSH1 0x64 DUP3 ADD MSTORE PUSH1 0x84 ADD PUSH2 0x865 JUMP JUMPDEST PUSH1 0xB SLOAD PUSH1 0x40 MLOAD PUSH1 0x1 PUSH1 0x1 PUSH1 0xA0 SHL SUB SWAP1 SWAP2 AND SWAP1 CALLVALUE DUP1 ISZERO PUSH2 0x8FC MUL SWAP2 PUSH1 0x0 DUP2 DUP2 DUP2 DUP6 DUP9 DUP9 CALL SWAP4 POP POP POP POP ISZERO DUP1 ISZERO PUSH2 0x18BF JUMPI RETURNDATASIZE PUSH1 0x0 DUP1 RETURNDATACOPY RETURNDATASIZE PUSH1 0x0 REVERT JUMPDEST POP CALLVALUE PUSH1 0x10 PUSH1 0x0 DUP3 DUP3 SLOAD PUSH2 0x18D2 SWAP2 SWAP1 PUSH2 0x3049 JUMP JUMPDEST SWAP3 POP POP DUP2 SWAP1 SSTORE POP CALLVALUE PUSH1 0x11 PUSH1 0x0 DUP3 DUP3 SLOAD PUSH2 0x18EB SWAP2 SWAP1 PUSH2 0x3049 JUMP JUMPDEST SWAP1 SWAP2 SSTORE POP POP CALLER PUSH1 0x0 DUP2 DUP2 MSTORE PUSH1 0x14 PUSH1 0x20 MSTORE PUSH1 0x40 SWAP1 KECCAK256 PUSH1 0x1 ADD SLOAD PUSH1 0x1 PUSH1 0x1 PUSH1 0xA0 SHL SUB AND SUB PUSH2 0x1962 JUMPI CALLER PUSH1 0x0 SWAP1 DUP2 MSTORE PUSH1 0x14 PUSH1 0x20 MSTORE PUSH1 0x40 DUP2 KECCAK256 PUSH1 0x2 ADD DUP1 SLOAD CALLVALUE SWAP3 SWAP1 PUSH2 0x1933 SWAP1 DUP5 SWAP1 PUSH2 0x3049 JUMP JUMPDEST SWAP1 SWAP2 SSTORE POP POP CALLER PUSH1 0x0 SWAP1 DUP2 MSTORE PUSH1 0x14 PUSH1 0x20 MSTORE PUSH1 0x40 DUP2 KECCAK256 PUSH1 0x3 ADD DUP1 SLOAD PUSH1 0x1 SWAP3 SWAP1 PUSH2 0x195B SWAP1 DUP5 SWAP1 PUSH2 0x3049 JUMP JUMPDEST SWAP1 SWAP2 SSTORE POP POP JUMP JUMPDEST CALLER PUSH1 0x0 SWAP1 DUP2 MSTORE PUSH1 0x14 PUSH1 0x20 MSTORE PUSH1 0x40 SWAP1 KECCAK256 PUSH1 0xC DUP1 SLOAD DUP1 DUP4 SSTORE PUSH1 0x1 ADD SWAP1 SSTORE PUSH1 0x1 DUP1 DUP3 ADD DUP1 SLOAD PUSH1 0x1 PUSH1 0x1 PUSH1 0xA0 SHL SUB NOT AND CALLER OR SWAP1 SSTORE CALLVALUE PUSH1 0x2 DUP4 ADD SSTORE PUSH1 0x3 DUP3 ADD DUP1 SLOAD PUSH1 0x0 SWAP1 PUSH2 0x19AC SWAP1 DUP5 SWAP1 PUSH2 0x3049 JUMP JUMPDEST SWAP1 SWAP2 SSTORE POP POP PUSH1 0x15 DUP1 SLOAD PUSH1 0x1 DUP2 ADD DUP3 SSTORE PUSH1 0x0 SWAP2 SWAP1 SWAP2 MSTORE PUSH32 0x55F448FDEA98C4D29EB340757EF0A66CD03DBB9538908A6A81D96026B71EC475 ADD DUP1 SLOAD PUSH1 0x1 PUSH1 0x1 PUSH1 0xA0 SHL SUB NOT AND CALLER OR SWAP1 SSTORE POP JUMP JUMPDEST PUSH1 0x0 PUSH2 0x1A00 PUSH2 0x1D5F JUMP JUMPDEST POP PUSH1 0x11 SLOAD SWAP1 JUMP JUMPDEST PUSH2 0x1A0F PUSH2 0x1D5F JUMP JUMPDEST PUSH1 0x1 PUSH1 0x1 PUSH1 0xA0 SHL SUB DUP2 AND PUSH2 0x1A74 JUMPI PUSH1 0x40 MLOAD PUSH3 0x461BCD PUSH1 0xE5 SHL DUP2 MSTORE PUSH1 0x20 PUSH1 0x4 DUP3 ADD MSTORE PUSH1 0x26 PUSH1 0x24 DUP3 ADD MSTORE PUSH32 0x4F776E61626C653A206E6577206F776E657220697320746865207A65726F2061 PUSH1 0x44 DUP3 ADD MSTORE PUSH6 0x646472657373 PUSH1 0xD0 SHL PUSH1 0x64 DUP3 ADD MSTORE PUSH1 0x84 ADD PUSH2 0x865 JUMP JUMPDEST PUSH2 0x1210 DUP2 PUSH2 0x1E66 JUMP JUMPDEST PUSH1 0x0 PUSH1 0x1 PUSH1 0x1 PUSH1 0xE0 SHL SUB NOT DUP3 AND PUSH4 0x780E9D63 PUSH1 0xE0 SHL EQ DUP1 PUSH2 0x732 JUMPI POP PUSH2 0x732 DUP3 PUSH2 0x2118 JUMP JUMPDEST PUSH1 0x0 DUP2 DUP2 MSTORE PUSH1 0x2 PUSH1 0x20 MSTORE PUSH1 0x40 SWAP1 KECCAK256 SLOAD PUSH1 0x1 PUSH1 0x1 PUSH1 0xA0 SHL SUB AND PUSH2 0x1210 JUMPI PUSH1 0x40 MLOAD PUSH3 0x461BCD PUSH1 0xE5 SHL DUP2 MSTORE PUSH1 0x20 PUSH1 0x4 DUP3 ADD MSTORE PUSH1 0x18 PUSH1 0x24 DUP3 ADD MSTORE PUSH24 0x115490CDCC8C4E881A5B9D985B1A59081D1BDAD95B881251 PUSH1 0x42 SHL PUSH1 0x44 DUP3 ADD MSTORE PUSH1 0x64 ADD PUSH2 0x865 JUMP JUMPDEST PUSH1 0x0 DUP2 DUP2 MSTORE PUSH1 0x4 PUSH1 0x20 MSTORE PUSH1 0x40 SWAP1 KECCAK256 DUP1 SLOAD PUSH1 0x1 PUSH1 0x1 PUSH1 0xA0 SHL SUB NOT AND PUSH1 0x1 PUSH1 0x1 PUSH1 0xA0 SHL SUB DUP5 AND SWAP1 DUP2 OR SWAP1 SWAP2 SSTORE DUP2 SWAP1 PUSH2 0x1B36 DUP3 PUSH2 0xE20 JUMP JUMPDEST PUSH1 0x1 PUSH1 0x1 PUSH1 0xA0 SHL SUB AND PUSH32 0x8C5BE1E5EBEC7D5BD14F71427D1E84F3DD0314C0F7B2291E5B200AC8C7C3B925 PUSH1 0x40 MLOAD PUSH1 0x40 MLOAD DUP1 SWAP2 SUB SWAP1 LOG4 POP POP JUMP JUMPDEST PUSH1 0x0 DUP1 PUSH2 0x1B7B DUP4 PUSH2 0xE20 JUMP JUMPDEST SWAP1 POP DUP1 PUSH1 0x1 PUSH1 0x1 PUSH1 0xA0 SHL SUB AND DUP5 PUSH1 0x1 PUSH1 0x1 PUSH1 0xA0 SHL SUB AND EQ DUP1 PUSH2 0x1BC2 JUMPI POP PUSH1 0x1 PUSH1 0x1 PUSH1 0xA0 SHL SUB DUP1 DUP3 AND PUSH1 0x0 SWAP1 DUP2 MSTORE PUSH1 0x5 PUSH1 0x20 SWAP1 DUP2 MSTORE PUSH1 0x40 DUP1 DUP4 KECCAK256 SWAP4 DUP9 AND DUP4 MSTORE SWAP3 SWAP1 MSTORE KECCAK256 SLOAD PUSH1 0xFF AND JUMPDEST DUP1 PUSH2 0x1BE6 JUMPI POP DUP4 PUSH1 0x1 PUSH1 0x1 PUSH1 0xA0 SHL SUB AND PUSH2 0x1BDB DUP5 PUSH2 0x7CA JUMP JUMPDEST PUSH1 0x1 PUSH1 0x1 PUSH1 0xA0 SHL SUB AND EQ JUMPDEST SWAP5 SWAP4 POP POP POP POP JUMP JUMPDEST DUP3 PUSH1 0x1 PUSH1 0x1 PUSH1 0xA0 SHL SUB AND PUSH2 0x1C01 DUP3 PUSH2 0xE20 JUMP JUMPDEST PUSH1 0x1 PUSH1 0x1 PUSH1 0xA0 SHL SUB AND EQ PUSH2 0x1C27 JUMPI PUSH1 0x40 MLOAD PUSH3 0x461BCD PUSH1 0xE5 SHL DUP2 MSTORE PUSH1 0x4 ADD PUSH2 0x865 SWAP1 PUSH2 0x305C JUMP JUMPDEST PUSH1 0x1 PUSH1 0x1 PUSH1 0xA0 SHL SUB DUP3 AND PUSH2 0x1C89 JUMPI PUSH1 0x40 MLOAD PUSH3 0x461BCD PUSH1 0xE5 SHL DUP2 MSTORE PUSH1 0x20 PUSH1 0x4 DUP3 ADD MSTORE PUSH1 0x24 DUP1 DUP3 ADD MSTORE PUSH32 0x4552433732313A207472616E7366657220746F20746865207A65726F20616464 PUSH1 0x44 DUP3 ADD MSTORE PUSH4 0x72657373 PUSH1 0xE0 SHL PUSH1 0x64 DUP3 ADD MSTORE PUSH1 0x84 ADD PUSH2 0x865 JUMP JUMPDEST PUSH2 0x1C96 DUP4 DUP4 DUP4 PUSH1 0x1 PUSH2 0x2168 JUMP JUMPDEST DUP3 PUSH1 0x1 PUSH1 0x1 PUSH1 0xA0 SHL SUB AND PUSH2 0x1CA9 DUP3 PUSH2 0xE20 JUMP JUMPDEST PUSH1 0x1 PUSH1 0x1 PUSH1 0xA0 SHL SUB AND EQ PUSH2 0x1CCF JUMPI PUSH1 0x40 MLOAD PUSH3 0x461BCD PUSH1 0xE5 SHL DUP2 MSTORE PUSH1 0x4 ADD PUSH2 0x865 SWAP1 PUSH2 0x305C JUMP JUMPDEST PUSH1 0x0 DUP2 DUP2 MSTORE PUSH1 0x4 PUSH1 0x20 SWAP1 DUP2 MSTORE PUSH1 0x40 DUP1 DUP4 KECCAK256 DUP1 SLOAD PUSH1 0x1 PUSH1 0x1 PUSH1 0xA0 SHL SUB NOT SWAP1 DUP2 AND SWAP1 SWAP2 SSTORE PUSH1 0x1 PUSH1 0x1 PUSH1 0xA0 SHL SUB DUP8 DUP2 AND DUP1 DUP7 MSTORE PUSH1 0x3 DUP6 MSTORE DUP4 DUP7 KECCAK256 DUP1 SLOAD PUSH1 0x0 NOT ADD SWAP1 SSTORE SWAP1 DUP8 AND DUP1 DUP7 MSTORE DUP4 DUP7 KECCAK256 DUP1 SLOAD PUSH1 0x1 ADD SWAP1 SSTORE DUP7 DUP7 MSTORE PUSH1 0x2 SWAP1 SWAP5 MSTORE DUP3 DUP6 KECCAK256 DUP1 SLOAD SWAP1 SWAP3 AND DUP5 OR SWAP1 SWAP2 SSTORE SWAP1 MLOAD DUP5 SWAP4 PUSH32 0xDDF252AD1BE2C89B69C2B068FC378DAA952BA7F163C4A11628F55A4DF523B3EF SWAP2 LOG4 POP POP POP JUMP JUMPDEST PUSH1 0xB SLOAD PUSH1 0x1 PUSH1 0x1 PUSH1 0xA0 SHL SUB AND CALLER EQ PUSH2 0x10EA JUMPI PUSH1 0x40 MLOAD PUSH3 0x461BCD PUSH1 0xE5 SHL DUP2 MSTORE PUSH1 0x20 PUSH1 0x4 DUP3 ADD DUP2 SWAP1 MSTORE PUSH1 0x24 DUP3 ADD MSTORE PUSH32 0x4F776E61626C653A2063616C6C6572206973206E6F7420746865206F776E6572 PUSH1 0x44 DUP3 ADD MSTORE PUSH1 0x64 ADD PUSH2 0x865 JUMP JUMPDEST PUSH2 0xF41 DUP3 DUP3 PUSH1 0x40 MLOAD DUP1 PUSH1 0x20 ADD PUSH1 0x40 MSTORE DUP1 PUSH1 0x0 DUP2 MSTORE POP PUSH2 0x2174 JUMP JUMPDEST PUSH1 0x0 DUP3 DUP2 MSTORE PUSH1 0x2 PUSH1 0x20 MSTORE PUSH1 0x40 SWAP1 KECCAK256 SLOAD PUSH1 0x1 PUSH1 0x1 PUSH1 0xA0 SHL SUB AND PUSH2 0x1E4E JUMPI PUSH1 0x40 MLOAD PUSH3 0x461BCD PUSH1 0xE5 SHL DUP2 MSTORE PUSH1 0x20 PUSH1 0x4 DUP3 ADD MSTORE PUSH1 0x2E PUSH1 0x24 DUP3 ADD MSTORE PUSH32 0x45524337323155524953746F726167653A2055524920736574206F66206E6F6E PUSH1 0x44 DUP3 ADD MSTORE PUSH14 0x32BC34B9BA32B73A103A37B5B2B7 PUSH1 0x91 SHL PUSH1 0x64 DUP3 ADD MSTORE PUSH1 0x84 ADD PUSH2 0x865 JUMP JUMPDEST PUSH1 0x0 DUP3 DUP2 MSTORE PUSH1 0xA PUSH1 0x20 MSTORE PUSH1 0x40 SWAP1 KECCAK256 PUSH2 0x906 DUP3 DUP3 PUSH2 0x2F76 JUMP JUMPDEST PUSH1 0xB DUP1 SLOAD PUSH1 0x1 PUSH1 0x1 PUSH1 0xA0 SHL SUB DUP4 DUP2 AND PUSH1 0x1 PUSH1 0x1 PUSH1 0xA0 SHL SUB NOT DUP4 AND DUP2 OR SWAP1 SWAP4 SSTORE PUSH1 0x40 MLOAD SWAP2 AND SWAP2 SWAP1 DUP3 SWAP1 PUSH32 0x8BE0079C531659141344CD1FD0A4F28419497F9722A3DAAFE3B4186F6B6457E0 SWAP1 PUSH1 0x0 SWAP1 LOG3 POP POP JUMP JUMPDEST DUP1 SLOAD DUP1 PUSH2 0x1F07 JUMPI PUSH1 0x40 MLOAD PUSH3 0x461BCD PUSH1 0xE5 SHL DUP2 MSTORE PUSH1 0x20 PUSH1 0x4 DUP3 ADD MSTORE PUSH1 0x1B PUSH1 0x24 DUP3 ADD MSTORE PUSH32 0x436F756E7465723A2064656372656D656E74206F766572666C6F770000000000 PUSH1 0x44 DUP3 ADD MSTORE PUSH1 0x64 ADD PUSH2 0x865 JUMP JUMPDEST PUSH1 0x0 NOT ADD SWAP1 SSTORE JUMP JUMPDEST DUP2 PUSH1 0x1 PUSH1 0x1 PUSH1 0xA0 SHL SUB AND DUP4 PUSH1 0x1 PUSH1 0x1 PUSH1 0xA0 SHL SUB AND SUB PUSH2 0x1F70 JUMPI PUSH1 0x40 MLOAD PUSH3 0x461BCD PUSH1 0xE5 SHL DUP2 MSTORE PUSH1 0x20 PUSH1 0x4 DUP3 ADD MSTORE PUSH1 0x19 PUSH1 0x24 DUP3 ADD MSTORE PUSH32 0x4552433732313A20617070726F766520746F2063616C6C657200000000000000 PUSH1 0x44 DUP3 ADD MSTORE PUSH1 0x64 ADD PUSH2 0x865 JUMP JUMPDEST PUSH1 0x1 PUSH1 0x1 PUSH1 0xA0 SHL SUB DUP4 DUP2 AND PUSH1 0x0 DUP2 DUP2 MSTORE PUSH1 0x5 PUSH1 0x20 SWAP1 DUP2 MSTORE PUSH1 0x40 DUP1 DUP4 KECCAK256 SWAP5 DUP8 AND DUP1 DUP5 MSTORE SWAP5 DUP3 MSTORE SWAP2 DUP3 SWAP1 KECCAK256 DUP1 SLOAD PUSH1 0xFF NOT AND DUP7 ISZERO ISZERO SWAP1 DUP2 OR SWAP1 SWAP2 SSTORE SWAP2 MLOAD SWAP2 DUP3 MSTORE PUSH32 0x17307EAB39AB6107E8899845AD3D59BD9653F200F220920489CA2B5937696C31 SWAP2 ADD PUSH1 0x40 MLOAD DUP1 SWAP2 SUB SWAP1 LOG3 POP POP POP JUMP JUMPDEST PUSH2 0x1FE8 DUP5 DUP5 DUP5 PUSH2 0x1BEE JUMP JUMPDEST PUSH2 0x1FF4 DUP5 DUP5 DUP5 DUP5 PUSH2 0x21A7 JUMP JUMPDEST PUSH2 0x1581 JUMPI PUSH1 0x40 MLOAD PUSH3 0x461BCD PUSH1 0xE5 SHL DUP2 MSTORE PUSH1 0x4 ADD PUSH2 0x865 SWAP1 PUSH2 0x30A1 JUMP JUMPDEST PUSH1 0x60 PUSH2 0x201B DUP3 PUSH2 0x1AA2 JUMP JUMPDEST PUSH1 0x0 DUP3 DUP2 MSTORE PUSH1 0xA PUSH1 0x20 MSTORE PUSH1 0x40 DUP2 KECCAK256 DUP1 SLOAD PUSH2 0x2034 SWAP1 PUSH2 0x2E5C JUMP JUMPDEST DUP1 PUSH1 0x1F ADD PUSH1 0x20 DUP1 SWAP2 DIV MUL PUSH1 0x20 ADD PUSH1 0x40 MLOAD SWAP1 DUP2 ADD PUSH1 0x40 MSTORE DUP1 SWAP3 SWAP2 SWAP1 DUP2 DUP2 MSTORE PUSH1 0x20 ADD DUP3 DUP1 SLOAD PUSH2 0x2060 SWAP1 PUSH2 0x2E5C JUMP JUMPDEST DUP1 ISZERO PUSH2 0x20AD JUMPI DUP1 PUSH1 0x1F LT PUSH2 0x2082 JUMPI PUSH2 0x100 DUP1 DUP4 SLOAD DIV MUL DUP4 MSTORE SWAP2 PUSH1 0x20 ADD SWAP2 PUSH2 0x20AD JUMP JUMPDEST DUP3 ADD SWAP2 SWAP1 PUSH1 0x0 MSTORE PUSH1 0x20 PUSH1 0x0 KECCAK256 SWAP1 JUMPDEST DUP2 SLOAD DUP2 MSTORE SWAP1 PUSH1 0x1 ADD SWAP1 PUSH1 0x20 ADD DUP1 DUP4 GT PUSH2 0x2090 JUMPI DUP3 SWAP1 SUB PUSH1 0x1F AND DUP3 ADD SWAP2 JUMPDEST POP POP POP POP POP SWAP1 POP PUSH1 0x0 PUSH2 0x20CB PUSH1 0x40 DUP1 MLOAD PUSH1 0x20 DUP2 ADD SWAP1 SWAP2 MSTORE PUSH1 0x0 DUP2 MSTORE SWAP1 JUMP JUMPDEST SWAP1 POP DUP1 MLOAD PUSH1 0x0 SUB PUSH2 0x20DD JUMPI POP SWAP3 SWAP2 POP POP JUMP JUMPDEST DUP2 MLOAD ISZERO PUSH2 0x210F JUMPI DUP1 DUP3 PUSH1 0x40 MLOAD PUSH1 0x20 ADD PUSH2 0x20F7 SWAP3 SWAP2 SWAP1 PUSH2 0x30F3 JUMP JUMPDEST PUSH1 0x40 MLOAD PUSH1 0x20 DUP2 DUP4 SUB SUB DUP2 MSTORE SWAP1 PUSH1 0x40 MSTORE SWAP3 POP POP POP SWAP2 SWAP1 POP JUMP JUMPDEST PUSH2 0x1BE6 DUP5 PUSH2 0x22A8 JUMP JUMPDEST PUSH1 0x0 PUSH1 0x1 PUSH1 0x1 PUSH1 0xE0 SHL SUB NOT DUP3 AND PUSH4 0x80AC58CD PUSH1 0xE0 SHL EQ DUP1 PUSH2 0x2149 JUMPI POP PUSH1 0x1 PUSH1 0x1 PUSH1 0xE0 SHL SUB NOT DUP3 AND PUSH4 0x5B5E139F PUSH1 0xE0 SHL EQ JUMPDEST DUP1 PUSH2 0x732 JUMPI POP PUSH4 0x1FFC9A7 PUSH1 0xE0 SHL PUSH1 0x1 PUSH1 0x1 PUSH1 0xE0 SHL SUB NOT DUP4 AND EQ PUSH2 0x732 JUMP JUMPDEST PUSH2 0x1581 DUP5 DUP5 DUP5 DUP5 PUSH2 0x231C JUMP JUMPDEST PUSH2 0x217E DUP4 DUP4 PUSH2 0x2450 JUMP JUMPDEST PUSH2 0x218B PUSH1 0x0 DUP5 DUP5 DUP5 PUSH2 0x21A7 JUMP JUMPDEST PUSH2 0x906 JUMPI PUSH1 0x40 MLOAD PUSH3 0x461BCD PUSH1 0xE5 SHL DUP2 MSTORE PUSH1 0x4 ADD PUSH2 0x865 SWAP1 PUSH2 0x30A1 JUMP JUMPDEST PUSH1 0x0 PUSH1 0x1 PUSH1 0x1 PUSH1 0xA0 SHL SUB DUP5 AND EXTCODESIZE ISZERO PUSH2 0x229D JUMPI PUSH1 0x40 MLOAD PUSH4 0xA85BD01 PUSH1 0xE1 SHL DUP2 MSTORE PUSH1 0x1 PUSH1 0x1 PUSH1 0xA0 SHL SUB DUP6 AND SWAP1 PUSH4 0x150B7A02 SWAP1 PUSH2 0x21EB SWAP1 CALLER SWAP1 DUP10 SWAP1 DUP9 SWAP1 DUP9 SWAP1 PUSH1 0x4 ADD PUSH2 0x3122 JUMP JUMPDEST PUSH1 0x20 PUSH1 0x40 MLOAD DUP1 DUP4 SUB DUP2 PUSH1 0x0 DUP8 GAS CALL SWAP3 POP POP POP DUP1 ISZERO PUSH2 0x2226 JUMPI POP PUSH1 0x40 DUP1 MLOAD PUSH1 0x1F RETURNDATASIZE SWAP1 DUP2 ADD PUSH1 0x1F NOT AND DUP3 ADD SWAP1 SWAP3 MSTORE PUSH2 0x2223 SWAP2 DUP2 ADD SWAP1 PUSH2 0x315F JUMP JUMPDEST PUSH1 0x1 JUMPDEST PUSH2 0x2283 JUMPI RETURNDATASIZE DUP1 DUP1 ISZERO PUSH2 0x2254 JUMPI PUSH1 0x40 MLOAD SWAP2 POP PUSH1 0x1F NOT PUSH1 0x3F RETURNDATASIZE ADD AND DUP3 ADD PUSH1 0x40 MSTORE RETURNDATASIZE DUP3 MSTORE RETURNDATASIZE PUSH1 0x0 PUSH1 0x20 DUP5 ADD RETURNDATACOPY PUSH2 0x2259 JUMP JUMPDEST PUSH1 0x60 SWAP2 POP JUMPDEST POP DUP1 MLOAD PUSH1 0x0 SUB PUSH2 0x227B JUMPI PUSH1 0x40 MLOAD PUSH3 0x461BCD PUSH1 0xE5 SHL DUP2 MSTORE PUSH1 0x4 ADD PUSH2 0x865 SWAP1 PUSH2 0x30A1 JUMP JUMPDEST DUP1 MLOAD DUP2 PUSH1 0x20 ADD REVERT JUMPDEST PUSH1 0x1 PUSH1 0x1 PUSH1 0xE0 SHL SUB NOT AND PUSH4 0xA85BD01 PUSH1 0xE1 SHL EQ SWAP1 POP PUSH2 0x1BE6 JUMP JUMPDEST POP PUSH1 0x1 SWAP5 SWAP4 POP POP POP POP JUMP JUMPDEST PUSH1 0x60 PUSH2 0x22B3 DUP3 PUSH2 0x1AA2 JUMP JUMPDEST PUSH1 0x0 PUSH2 0x22CA PUSH1 0x40 DUP1 MLOAD PUSH1 0x20 DUP2 ADD SWAP1 SWAP2 MSTORE PUSH1 0x0 DUP2 MSTORE SWAP1 JUMP JUMPDEST SWAP1 POP PUSH1 0x0 DUP2 MLOAD GT PUSH2 0x22EA JUMPI PUSH1 0x40 MLOAD DUP1 PUSH1 0x20 ADD PUSH1 0x40 MSTORE DUP1 PUSH1 0x0 DUP2 MSTORE POP PUSH2 0x2315 JUMP JUMPDEST DUP1 PUSH2 0x22F4 DUP5 PUSH2 0x25E9 JUMP JUMPDEST PUSH1 0x40 MLOAD PUSH1 0x20 ADD PUSH2 0x2305 SWAP3 SWAP2 SWAP1 PUSH2 0x30F3 JUMP JUMPDEST PUSH1 0x40 MLOAD PUSH1 0x20 DUP2 DUP4 SUB SUB DUP2 MSTORE SWAP1 PUSH1 0x40 MSTORE JUMPDEST SWAP4 SWAP3 POP POP POP JUMP JUMPDEST PUSH1 0x1 DUP2 GT ISZERO PUSH2 0x238B JUMPI PUSH1 0x40 MLOAD PUSH3 0x461BCD PUSH1 0xE5 SHL DUP2 MSTORE PUSH1 0x20 PUSH1 0x4 DUP3 ADD MSTORE PUSH1 0x35 PUSH1 0x24 DUP3 ADD MSTORE PUSH32 0x455243373231456E756D657261626C653A20636F6E7365637574697665207472 PUSH1 0x44 DUP3 ADD MSTORE PUSH21 0x185B9CD9995C9CC81B9BDD081CDD5C1C1BDC9D1959 PUSH1 0x5A SHL PUSH1 0x64 DUP3 ADD MSTORE PUSH1 0x84 ADD PUSH2 0x865 JUMP JUMPDEST DUP2 PUSH1 0x1 PUSH1 0x1 PUSH1 0xA0 SHL SUB DUP6 AND PUSH2 0x23E7 JUMPI PUSH2 0x23E2 DUP2 PUSH1 0x8 DUP1 SLOAD PUSH1 0x0 DUP4 DUP2 MSTORE PUSH1 0x9 PUSH1 0x20 MSTORE PUSH1 0x40 DUP2 KECCAK256 DUP3 SWAP1 SSTORE PUSH1 0x1 DUP3 ADD DUP4 SSTORE SWAP2 SWAP1 SWAP2 MSTORE PUSH32 0xF3F7A9FE364FAAB93B216DA50A3214154F22A0A2B415B23A84C8169E8B636EE3 ADD SSTORE JUMP JUMPDEST PUSH2 0x240A JUMP JUMPDEST DUP4 PUSH1 0x1 PUSH1 0x1 PUSH1 0xA0 SHL SUB AND DUP6 PUSH1 0x1 PUSH1 0x1 PUSH1 0xA0 SHL SUB AND EQ PUSH2 0x240A JUMPI PUSH2 0x240A DUP6 DUP3 PUSH2 0x267C JUMP JUMPDEST PUSH1 0x1 PUSH1 0x1 PUSH1 0xA0 SHL SUB DUP5 AND PUSH2 0x2426 JUMPI PUSH2 0x2421 DUP2 PUSH2 0x2719 JUMP JUMPDEST PUSH2 0x2449 JUMP JUMPDEST DUP5 PUSH1 0x1 PUSH1 0x1 PUSH1 0xA0 SHL SUB AND DUP5 PUSH1 0x1 PUSH1 0x1 PUSH1 0xA0 SHL SUB AND EQ PUSH2 0x2449 JUMPI PUSH2 0x2449 DUP5 DUP3 PUSH2 0x27C8 JUMP JUMPDEST POP POP POP POP POP JUMP JUMPDEST PUSH1 0x1 PUSH1 0x1 PUSH1 0xA0 SHL SUB DUP3 AND PUSH2 0x24A6 JUMPI PUSH1 0x40 MLOAD PUSH3 0x461BCD PUSH1 0xE5 SHL DUP2 MSTORE PUSH1 0x20 PUSH1 0x4 DUP3 ADD DUP2 SWAP1 MSTORE PUSH1 0x24 DUP3 ADD MSTORE PUSH32 0x4552433732313A206D696E7420746F20746865207A65726F2061646472657373 PUSH1 0x44 DUP3 ADD MSTORE PUSH1 0x64 ADD PUSH2 0x865 JUMP JUMPDEST PUSH1 0x0 DUP2 DUP2 MSTORE PUSH1 0x2 PUSH1 0x20 MSTORE PUSH1 0x40 SWAP1 KECCAK256 SLOAD PUSH1 0x1 PUSH1 0x1 PUSH1 0xA0 SHL SUB AND ISZERO PUSH2 0x250B JUMPI PUSH1 0x40 MLOAD PUSH3 0x461BCD PUSH1 0xE5 SHL DUP2 MSTORE PUSH1 0x20 PUSH1 0x4 DUP3 ADD MSTORE PUSH1 0x1C PUSH1 0x24 DUP3 ADD MSTORE PUSH32 0x4552433732313A20746F6B656E20616C7265616479206D696E74656400000000 PUSH1 0x44 DUP3 ADD MSTORE PUSH1 0x64 ADD PUSH2 0x865 JUMP JUMPDEST PUSH2 0x2519 PUSH1 0x0 DUP4 DUP4 PUSH1 0x1 PUSH2 0x2168 JUMP JUMPDEST PUSH1 0x0 DUP2 DUP2 MSTORE PUSH1 0x2 PUSH1 0x20 MSTORE PUSH1 0x40 SWAP1 KECCAK256 SLOAD PUSH1 0x1 PUSH1 0x1 PUSH1 0xA0 SHL SUB AND ISZERO PUSH2 0x257E JUMPI PUSH1 0x40 MLOAD PUSH3 0x461BCD PUSH1 0xE5 SHL DUP2 MSTORE PUSH1 0x20 PUSH1 0x4 DUP3 ADD MSTORE PUSH1 0x1C PUSH1 0x24 DUP3 ADD MSTORE PUSH32 0x4552433732313A20746F6B656E20616C7265616479206D696E74656400000000 PUSH1 0x44 DUP3 ADD MSTORE PUSH1 0x64 ADD PUSH2 0x865 JUMP JUMPDEST PUSH1 0x1 PUSH1 0x1 PUSH1 0xA0 SHL SUB DUP3 AND PUSH1 0x0 DUP2 DUP2 MSTORE PUSH1 0x3 PUSH1 0x20 SWAP1 DUP2 MSTORE PUSH1 0x40 DUP1 DUP4 KECCAK256 DUP1 SLOAD PUSH1 0x1 ADD SWAP1 SSTORE DUP5 DUP4 MSTORE PUSH1 0x2 SWAP1 SWAP2 MSTORE DUP1 DUP3 KECCAK256 DUP1 SLOAD PUSH1 0x1 PUSH1 0x1 PUSH1 0xA0 SHL SUB NOT AND DUP5 OR SWAP1 SSTORE MLOAD DUP4 SWAP3 SWAP2 SWAP1 PUSH32 0xDDF252AD1BE2C89B69C2B068FC378DAA952BA7F163C4A11628F55A4DF523B3EF SWAP1 DUP3 SWAP1 LOG4 POP POP JUMP JUMPDEST PUSH1 0x60 PUSH1 0x0 PUSH2 0x25F6 DUP4 PUSH2 0x280C JUMP JUMPDEST PUSH1 0x1 ADD SWAP1 POP PUSH1 0x0 DUP2 PUSH8 0xFFFFFFFFFFFFFFFF DUP2 GT ISZERO PUSH2 0x2616 JUMPI PUSH2 0x2616 PUSH2 0x2B67 JUMP JUMPDEST PUSH1 0x40 MLOAD SWAP1 DUP1 DUP3 MSTORE DUP1 PUSH1 0x1F ADD PUSH1 0x1F NOT AND PUSH1 0x20 ADD DUP3 ADD PUSH1 0x40 MSTORE DUP1 ISZERO PUSH2 0x2640 JUMPI PUSH1 0x20 DUP3 ADD DUP2 DUP1 CALLDATASIZE DUP4 CALLDATACOPY ADD SWAP1 POP JUMPDEST POP SWAP1 POP DUP2 DUP2 ADD PUSH1 0x20 ADD JUMPDEST PUSH1 0x0 NOT ADD PUSH16 0x181899199A1A9B1B9C1CB0B131B232B3 PUSH1 0x81 SHL PUSH1 0xA DUP7 MOD BYTE DUP2 MSTORE8 PUSH1 0xA DUP6 DIV SWAP5 POP DUP5 PUSH2 0x264A JUMPI POP SWAP4 SWAP3 POP POP POP JUMP JUMPDEST PUSH1 0x0 PUSH1 0x1 PUSH2 0x2689 DUP5 PUSH2 0x1052 JUMP JUMPDEST PUSH2 0x2693 SWAP2 SWAP1 PUSH2 0x3036 JUMP JUMPDEST PUSH1 0x0 DUP4 DUP2 MSTORE PUSH1 0x7 PUSH1 0x20 MSTORE PUSH1 0x40 SWAP1 KECCAK256 SLOAD SWAP1 SWAP2 POP DUP1 DUP3 EQ PUSH2 0x26E6 JUMPI PUSH1 0x1 PUSH1 0x1 PUSH1 0xA0 SHL SUB DUP5 AND PUSH1 0x0 SWAP1 DUP2 MSTORE PUSH1 0x6 PUSH1 0x20 SWAP1 DUP2 MSTORE PUSH1 0x40 DUP1 DUP4 KECCAK256 DUP6 DUP5 MSTORE DUP3 MSTORE DUP1 DUP4 KECCAK256 SLOAD DUP5 DUP5 MSTORE DUP2 DUP5 KECCAK256 DUP2 SWAP1 SSTORE DUP4 MSTORE PUSH1 0x7 SWAP1 SWAP2 MSTORE SWAP1 KECCAK256 DUP2 SWAP1 SSTORE JUMPDEST POP PUSH1 0x0 SWAP2 DUP3 MSTORE PUSH1 0x7 PUSH1 0x20 SWAP1 DUP2 MSTORE PUSH1 0x40 DUP1 DUP5 KECCAK256 DUP5 SWAP1 SSTORE PUSH1 0x1 PUSH1 0x1 PUSH1 0xA0 SHL SUB SWAP1 SWAP5 AND DUP4 MSTORE PUSH1 0x6 DUP2 MSTORE DUP4 DUP4 KECCAK256 SWAP2 DUP4 MSTORE MSTORE SWAP1 DUP2 KECCAK256 SSTORE JUMP JUMPDEST PUSH1 0x8 SLOAD PUSH1 0x0 SWAP1 PUSH2 0x272B SWAP1 PUSH1 0x1 SWAP1 PUSH2 0x3036 JUMP JUMPDEST PUSH1 0x0 DUP4 DUP2 MSTORE PUSH1 0x9 PUSH1 0x20 MSTORE PUSH1 0x40 DUP2 KECCAK256 SLOAD PUSH1 0x8 DUP1 SLOAD SWAP4 SWAP5 POP SWAP1 SWAP3 DUP5 SWAP1 DUP2 LT PUSH2 0x2753 JUMPI PUSH2 0x2753 PUSH2 0x2E96 JUMP JUMPDEST SWAP1 PUSH1 0x0 MSTORE PUSH1 0x20 PUSH1 0x0 KECCAK256 ADD SLOAD SWAP1 POP DUP1 PUSH1 0x8 DUP4 DUP2 SLOAD DUP2 LT PUSH2 0x2774 JUMPI PUSH2 0x2774 PUSH2 0x2E96 JUMP JUMPDEST PUSH1 0x0 SWAP2 DUP3 MSTORE PUSH1 0x20 DUP1 DUP4 KECCAK256 SWAP1 SWAP2 ADD SWAP3 SWAP1 SWAP3 SSTORE DUP3 DUP2 MSTORE PUSH1 0x9 SWAP1 SWAP2 MSTORE PUSH1 0x40 DUP1 DUP3 KECCAK256 DUP5 SWAP1 SSTORE DUP6 DUP3 MSTORE DUP2 KECCAK256 SSTORE PUSH1 0x8 DUP1 SLOAD DUP1 PUSH2 0x27AC JUMPI PUSH2 0x27AC PUSH2 0x317C JUMP JUMPDEST PUSH1 0x1 SWAP1 SUB DUP2 DUP2 SWAP1 PUSH1 0x0 MSTORE PUSH1 0x20 PUSH1 0x0 KECCAK256 ADD PUSH1 0x0 SWAP1 SSTORE SWAP1 SSTORE POP POP POP POP JUMP JUMPDEST PUSH1 0x0 PUSH2 0x27D3 DUP4 PUSH2 0x1052 JUMP JUMPDEST PUSH1 0x1 PUSH1 0x1 PUSH1 0xA0 SHL SUB SWAP1 SWAP4 AND PUSH1 0x0 SWAP1 DUP2 MSTORE PUSH1 0x6 PUSH1 0x20 SWAP1 DUP2 MSTORE PUSH1 0x40 DUP1 DUP4 KECCAK256 DUP7 DUP5 MSTORE DUP3 MSTORE DUP1 DUP4 KECCAK256 DUP6 SWAP1 SSTORE SWAP4 DUP3 MSTORE PUSH1 0x7 SWAP1 MSTORE SWAP2 SWAP1 SWAP2 KECCAK256 SWAP2 SWAP1 SWAP2 SSTORE POP JUMP JUMPDEST PUSH1 0x0 DUP1 PUSH19 0x184F03E93FF9F4DAA797ED6E38ED64BF6A1F01 PUSH1 0x40 SHL DUP4 LT PUSH2 0x284B JUMPI PUSH19 0x184F03E93FF9F4DAA797ED6E38ED64BF6A1F01 PUSH1 0x40 SHL DUP4 DIV SWAP3 POP PUSH1 0x40 ADD JUMPDEST PUSH14 0x4EE2D6D415B85ACEF8100000000 DUP4 LT PUSH2 0x2877 JUMPI PUSH14 0x4EE2D6D415B85ACEF8100000000 DUP4 DIV SWAP3 POP PUSH1 0x20 ADD JUMPDEST PUSH7 0x2386F26FC10000 DUP4 LT PUSH2 0x2895 JUMPI PUSH7 0x2386F26FC10000 DUP4 DIV SWAP3 POP PUSH1 0x10 ADD JUMPDEST PUSH4 0x5F5E100 DUP4 LT PUSH2 0x28AD JUMPI PUSH4 0x5F5E100 DUP4 DIV SWAP3 POP PUSH1 0x8 ADD JUMPDEST PUSH2 0x2710 DUP4 LT PUSH2 0x28C1 JUMPI PUSH2 0x2710 DUP4 DIV SWAP3 POP PUSH1 0x4 ADD JUMPDEST PUSH1 0x64 DUP4 LT PUSH2 0x28D3 JUMPI PUSH1 0x64 DUP4 DIV SWAP3 POP PUSH1 0x2 ADD JUMPDEST PUSH1 0xA DUP4 LT PUSH2 0x732 JUMPI PUSH1 0x1 ADD SWAP3 SWAP2 POP POP JUMP JUMPDEST POP DUP1 SLOAD PUSH2 0x28F0 SWAP1 PUSH2 0x2E5C JUMP JUMPDEST PUSH1 0x0 DUP3 SSTORE DUP1 PUSH1 0x1F LT PUSH2 0x2900 JUMPI POP POP JUMP JUMPDEST PUSH1 0x1F ADD PUSH1 0x20 SWAP1 DIV SWAP1 PUSH1 0x0 MSTORE PUSH1 0x20 PUSH1 0x0 KECCAK256 SWAP1 DUP2 ADD SWAP1 PUSH2 0x1210 SWAP2 SWAP1 JUMPDEST DUP1 DUP3 GT ISZERO PUSH2 0x292E JUMPI PUSH1 0x0 DUP2 SSTORE PUSH1 0x1 ADD PUSH2 0x291A JUMP JUMPDEST POP SWAP1 JUMP JUMPDEST PUSH1 0x1 PUSH1 0x1 PUSH1 0xE0 SHL SUB NOT DUP2 AND DUP2 EQ PUSH2 0x1210 JUMPI PUSH1 0x0 DUP1 REVERT JUMPDEST PUSH1 0x0 PUSH1 0x20 DUP3 DUP5 SUB SLT ISZERO PUSH2 0x295A JUMPI PUSH1 0x0 DUP1 REVERT JUMPDEST DUP2 CALLDATALOAD PUSH2 0x2315 DUP2 PUSH2 0x2932 JUMP JUMPDEST PUSH1 0x0 JUMPDEST DUP4 DUP2 LT ISZERO PUSH2 0x2980 JUMPI DUP2 DUP2 ADD MLOAD DUP4 DUP3 ADD MSTORE PUSH1 0x20 ADD PUSH2 0x2968 JUMP JUMPDEST POP POP PUSH1 0x0 SWAP2 ADD MSTORE JUMP JUMPDEST PUSH1 0x0 DUP2 MLOAD DUP1 DUP5 MSTORE PUSH2 0x29A1 DUP2 PUSH1 0x20 DUP7 ADD PUSH1 0x20 DUP7 ADD PUSH2 0x2965 JUMP JUMPDEST PUSH1 0x1F ADD PUSH1 0x1F NOT AND SWAP3 SWAP1 SWAP3 ADD PUSH1 0x20 ADD SWAP3 SWAP2 POP POP JUMP JUMPDEST PUSH1 0x20 DUP2 MSTORE PUSH1 0x0 PUSH2 0x2315 PUSH1 0x20 DUP4 ADD DUP5 PUSH2 0x2989 JUMP JUMPDEST PUSH1 0x0 PUSH1 0x20 DUP3 DUP5 SUB SLT ISZERO PUSH2 0x29DA JUMPI PUSH1 0x0 DUP1 REVERT JUMPDEST POP CALLDATALOAD SWAP2 SWAP1 POP JUMP JUMPDEST PUSH1 0x1 PUSH1 0x1 PUSH1 0xA0 SHL SUB DUP2 AND DUP2 EQ PUSH2 0x1210 JUMPI PUSH1 0x0 DUP1 REVERT JUMPDEST PUSH1 0x0 DUP1 PUSH1 0x40 DUP4 DUP6 SUB SLT ISZERO PUSH2 0x2A09 JUMPI PUSH1 0x0 DUP1 REVERT JUMPDEST DUP3 CALLDATALOAD PUSH2 0x2A14 DUP2 PUSH2 0x29E1 JUMP JUMPDEST SWAP5 PUSH1 0x20 SWAP4 SWAP1 SWAP4 ADD CALLDATALOAD SWAP4 POP POP POP JUMP JUMPDEST PUSH1 0x0 DUP1 PUSH1 0x40 DUP4 DUP6 SUB SLT ISZERO PUSH2 0x2A35 JUMPI PUSH1 0x0 DUP1 REVERT JUMPDEST DUP3 CALLDATALOAD SWAP2 POP PUSH1 0x20 DUP4 ADD CALLDATALOAD PUSH2 0x2A47 DUP2 PUSH2 0x29E1 JUMP JUMPDEST DUP1 SWAP2 POP POP SWAP3 POP SWAP3 SWAP1 POP JUMP JUMPDEST PUSH1 0x20 DUP1 DUP3 MSTORE DUP3 MLOAD DUP3 DUP3 ADD DUP2 SWAP1 MSTORE PUSH1 0x0 SWAP2 SWAP1 DUP5 DUP3 ADD SWAP1 PUSH1 0x40 DUP6 ADD SWAP1 DUP5 JUMPDEST DUP2 DUP2 LT ISZERO PUSH2 0x2A8A JUMPI DUP4 MLOAD DUP4 MSTORE SWAP3 DUP5 ADD SWAP3 SWAP2 DUP5 ADD SWAP2 PUSH1 0x1 ADD PUSH2 0x2A6E JUMP JUMPDEST POP SWAP1 SWAP7 SWAP6 POP POP POP POP POP POP JUMP JUMPDEST PUSH1 0x0 DUP1 PUSH1 0x0 PUSH1 0x60 DUP5 DUP7 SUB SLT ISZERO PUSH2 0x2AAB JUMPI PUSH1 0x0 DUP1 REVERT JUMPDEST DUP4 CALLDATALOAD PUSH2 0x2AB6 DUP2 PUSH2 0x29E1 JUMP JUMPDEST SWAP3 POP PUSH1 0x20 DUP5 ADD CALLDATALOAD PUSH2 0x2AC6 DUP2 PUSH2 0x29E1 JUMP JUMPDEST SWAP3 SWAP6 SWAP3 SWAP5 POP POP POP PUSH1 0x40 SWAP2 SWAP1 SWAP2 ADD CALLDATALOAD SWAP1 JUMP JUMPDEST DUP6 DUP2 MSTORE PUSH1 0x1 PUSH1 0x1 PUSH1 0xA0 SHL SUB DUP6 AND PUSH1 0x20 DUP3 ADD MSTORE PUSH1 0xA0 PUSH1 0x40 DUP3 ADD DUP2 SWAP1 MSTORE PUSH1 0x0 SWAP1 PUSH2 0x2B01 SWAP1 DUP4 ADD DUP7 PUSH2 0x2989 JUMP JUMPDEST DUP3 DUP2 SUB PUSH1 0x60 DUP5 ADD MSTORE PUSH2 0x2B13 DUP2 DUP7 PUSH2 0x2989 JUMP JUMPDEST SWAP2 POP POP DUP3 PUSH1 0x80 DUP4 ADD MSTORE SWAP7 SWAP6 POP POP POP POP POP POP JUMP JUMPDEST PUSH1 0x20 DUP1 DUP3 MSTORE DUP3 MLOAD DUP3 DUP3 ADD DUP2 SWAP1 MSTORE PUSH1 0x0 SWAP2 SWAP1 DUP5 DUP3 ADD SWAP1 PUSH1 0x40 DUP6 ADD SWAP1 DUP5 JUMPDEST DUP2 DUP2 LT ISZERO PUSH2 0x2A8A JUMPI DUP4 MLOAD PUSH1 0x1 PUSH1 0x1 PUSH1 0xA0 SHL SUB AND DUP4 MSTORE SWAP3 DUP5 ADD SWAP3 SWAP2 DUP5 ADD SWAP2 PUSH1 0x1 ADD PUSH2 0x2B42 JUMP JUMPDEST PUSH4 0x4E487B71 PUSH1 0xE0 SHL PUSH1 0x0 MSTORE PUSH1 0x41 PUSH1 0x4 MSTORE PUSH1 0x24 PUSH1 0x0 REVERT JUMPDEST PUSH1 0x0 PUSH8 0xFFFFFFFFFFFFFFFF DUP1 DUP5 GT ISZERO PUSH2 0x2B98 JUMPI PUSH2 0x2B98 PUSH2 0x2B67 JUMP JUMPDEST PUSH1 0x40 MLOAD PUSH1 0x1F DUP6 ADD PUSH1 0x1F NOT SWAP1 DUP2 AND PUSH1 0x3F ADD AND DUP2 ADD SWAP1 DUP3 DUP3 GT DUP2 DUP4 LT OR ISZERO PUSH2 0x2BC0 JUMPI PUSH2 0x2BC0 PUSH2 0x2B67 JUMP JUMPDEST DUP2 PUSH1 0x40 MSTORE DUP1 SWAP4 POP DUP6 DUP2 MSTORE DUP7 DUP7 DUP7 ADD GT ISZERO PUSH2 0x2BD9 JUMPI PUSH1 0x0 DUP1 REVERT JUMPDEST DUP6 DUP6 PUSH1 0x20 DUP4 ADD CALLDATACOPY PUSH1 0x0 PUSH1 0x20 DUP8 DUP4 ADD ADD MSTORE POP POP POP SWAP4 SWAP3 POP POP POP JUMP JUMPDEST PUSH1 0x0 DUP3 PUSH1 0x1F DUP4 ADD SLT PUSH2 0x2C04 JUMPI PUSH1 0x0 DUP1 REVERT JUMPDEST PUSH2 0x2315 DUP4 DUP4 CALLDATALOAD PUSH1 0x20 DUP6 ADD PUSH2 0x2B7D JUMP JUMPDEST PUSH1 0x0 DUP1 PUSH1 0x40 DUP4 DUP6 SUB SLT ISZERO PUSH2 0x2C26 JUMPI PUSH1 0x0 DUP1 REVERT JUMPDEST DUP3 CALLDATALOAD PUSH8 0xFFFFFFFFFFFFFFFF DUP1 DUP3 GT ISZERO PUSH2 0x2C3E JUMPI PUSH1 0x0 DUP1 REVERT JUMPDEST PUSH2 0x2C4A DUP7 DUP4 DUP8 ADD PUSH2 0x2BF3 JUMP JUMPDEST SWAP4 POP PUSH1 0x20 DUP6 ADD CALLDATALOAD SWAP2 POP DUP1 DUP3 GT ISZERO PUSH2 0x2C60 JUMPI PUSH1 0x0 DUP1 REVERT JUMPDEST POP PUSH2 0x2C6D DUP6 DUP3 DUP7 ADD PUSH2 0x2BF3 JUMP JUMPDEST SWAP2 POP POP SWAP3 POP SWAP3 SWAP1 POP JUMP JUMPDEST PUSH1 0x0 PUSH1 0x20 DUP3 DUP5 SUB SLT ISZERO PUSH2 0x2C89 JUMPI PUSH1 0x0 DUP1 REVERT JUMPDEST DUP2 CALLDATALOAD PUSH8 0xFFFFFFFFFFFFFFFF DUP2 GT ISZERO PUSH2 0x2CA0 JUMPI PUSH1 0x0 DUP1 REVERT JUMPDEST PUSH2 0x1BE6 DUP5 DUP3 DUP6 ADD PUSH2 0x2BF3 JUMP JUMPDEST PUSH1 0x0 PUSH1 0x20 DUP3 DUP5 SUB SLT ISZERO PUSH2 0x2CBE JUMPI PUSH1 0x0 DUP1 REVERT JUMPDEST DUP2 CALLDATALOAD PUSH2 0x2315 DUP2 PUSH2 0x29E1 JUMP JUMPDEST PUSH1 0x0 PUSH1 0x20 DUP1 DUP4 ADD DUP2 DUP5 MSTORE DUP1 DUP6 MLOAD DUP1 DUP4 MSTORE PUSH1 0x40 SWAP3 POP DUP3 DUP7 ADD SWAP2 POP DUP3 DUP2 PUSH1 0x5 SHL DUP8 ADD ADD DUP5 DUP9 ADD PUSH1 0x0 JUMPDEST DUP4 DUP2 LT ISZERO PUSH2 0x2D6D JUMPI DUP9 DUP4 SUB PUSH1 0x3F NOT ADD DUP6 MSTORE DUP2 MLOAD DUP1 MLOAD DUP5 MSTORE DUP8 DUP2 ADD MLOAD PUSH1 0x1 PUSH1 0x1 PUSH1 0xA0 SHL SUB AND DUP9 DUP6 ADD MSTORE DUP7 DUP2 ADD MLOAD PUSH1 0xA0 DUP9 DUP7 ADD DUP2 SWAP1 MSTORE SWAP1 PUSH2 0x2D31 DUP3 DUP8 ADD DUP3 PUSH2 0x2989 JUMP JUMPDEST SWAP2 POP POP PUSH1 0x60 DUP1 DUP4 ADD MLOAD DUP7 DUP4 SUB DUP3 DUP9 ADD MSTORE PUSH2 0x2D4B DUP4 DUP3 PUSH2 0x2989 JUMP JUMPDEST PUSH1 0x80 SWAP5 DUP6 ADD MLOAD SWAP8 SWAP1 SWAP5 ADD SWAP7 SWAP1 SWAP7 MSTORE POP POP SWAP5 DUP8 ADD SWAP5 SWAP3 POP SWAP1 DUP7 ADD SWAP1 PUSH1 0x1 ADD PUSH2 0x2CF0 JUMP JUMPDEST POP SWAP1 SWAP9 SWAP8 POP POP POP POP POP POP POP POP JUMP JUMPDEST PUSH1 0x0 DUP1 PUSH1 0x40 DUP4 DUP6 SUB SLT ISZERO PUSH2 0x2D8E JUMPI PUSH1 0x0 DUP1 REVERT JUMPDEST DUP3 CALLDATALOAD PUSH2 0x2D99 DUP2 PUSH2 0x29E1 JUMP JUMPDEST SWAP2 POP PUSH1 0x20 DUP4 ADD CALLDATALOAD DUP1 ISZERO ISZERO DUP2 EQ PUSH2 0x2A47 JUMPI PUSH1 0x0 DUP1 REVERT JUMPDEST PUSH1 0x0 DUP1 PUSH1 0x0 DUP1 PUSH1 0x80 DUP6 DUP8 SUB SLT ISZERO PUSH2 0x2DC4 JUMPI PUSH1 0x0 DUP1 REVERT JUMPDEST DUP5 CALLDATALOAD PUSH2 0x2DCF DUP2 PUSH2 0x29E1 JUMP JUMPDEST SWAP4 POP PUSH1 0x20 DUP6 ADD CALLDATALOAD PUSH2 0x2DDF DUP2 PUSH2 0x29E1 JUMP JUMPDEST SWAP3 POP PUSH1 0x40 DUP6 ADD CALLDATALOAD SWAP2 POP PUSH1 0x60 DUP6 ADD CALLDATALOAD PUSH8 0xFFFFFFFFFFFFFFFF DUP2 GT ISZERO PUSH2 0x2E02 JUMPI PUSH1 0x0 DUP1 REVERT JUMPDEST DUP6 ADD PUSH1 0x1F DUP2 ADD DUP8 SGT PUSH2 0x2E13 JUMPI PUSH1 0x0 DUP1 REVERT JUMPDEST PUSH2 0x2E22 DUP8 DUP3 CALLDATALOAD PUSH1 0x20 DUP5 ADD PUSH2 0x2B7D JUMP JUMPDEST SWAP2 POP POP SWAP3 SWAP6 SWAP2 SWAP5 POP SWAP3 POP JUMP JUMPDEST PUSH1 0x0 DUP1 PUSH1 0x40 DUP4 DUP6 SUB SLT ISZERO PUSH2 0x2E41 JUMPI PUSH1 0x0 DUP1 REVERT JUMPDEST DUP3 CALLDATALOAD PUSH2 0x2E4C DUP2 PUSH2 0x29E1 JUMP JUMPDEST SWAP2 POP PUSH1 0x20 DUP4 ADD CALLDATALOAD PUSH2 0x2A47 DUP2 PUSH2 0x29E1 JUMP JUMPDEST PUSH1 0x1 DUP2 DUP2 SHR SWAP1 DUP3 AND DUP1 PUSH2 0x2E70 JUMPI PUSH1 0x7F DUP3 AND SWAP2 POP JUMPDEST PUSH1 0x20 DUP3 LT DUP2 SUB PUSH2 0x2E90 JUMPI PUSH4 0x4E487B71 PUSH1 0xE0 SHL PUSH1 0x0 MSTORE PUSH1 0x22 PUSH1 0x4 MSTORE PUSH1 0x24 PUSH1 0x0 REVERT JUMPDEST POP SWAP2 SWAP1 POP JUMP JUMPDEST PUSH4 0x4E487B71 PUSH1 0xE0 SHL PUSH1 0x0 MSTORE PUSH1 0x32 PUSH1 0x4 MSTORE PUSH1 0x24 PUSH1 0x0 REVERT JUMPDEST PUSH4 0x4E487B71 PUSH1 0xE0 SHL PUSH1 0x0 MSTORE PUSH1 0x11 PUSH1 0x4 MSTORE PUSH1 0x24 PUSH1 0x0 REVERT JUMPDEST PUSH1 0x0 PUSH1 0x1 DUP3 ADD PUSH2 0x2ED4 JUMPI PUSH2 0x2ED4 PUSH2 0x2EAC JUMP JUMPDEST POP PUSH1 0x1 ADD SWAP1 JUMP JUMPDEST PUSH1 0x20 DUP1 DUP3 MSTORE PUSH1 0x2D SWAP1 DUP3 ADD MSTORE PUSH32 0x4552433732313A2063616C6C6572206973206E6F7420746F6B656E206F776E65 PUSH1 0x40 DUP3 ADD MSTORE PUSH13 0x1C881BDC88185C1C1C9BDD9959 PUSH1 0x9A SHL PUSH1 0x60 DUP3 ADD MSTORE PUSH1 0x80 ADD SWAP1 JUMP JUMPDEST PUSH1 0x1F DUP3 GT ISZERO PUSH2 0x906 JUMPI PUSH1 0x0 DUP2 DUP2 MSTORE PUSH1 0x20 DUP2 KECCAK256 PUSH1 0x1F DUP6 ADD PUSH1 0x5 SHR DUP2 ADD PUSH1 0x20 DUP7 LT ISZERO PUSH2 0x2F4F JUMPI POP DUP1 JUMPDEST PUSH1 0x1F DUP6 ADD PUSH1 0x5 SHR DUP3 ADD SWAP2 POP JUMPDEST DUP2 DUP2 LT ISZERO PUSH2 0x2F6E JUMPI DUP3 DUP2 SSTORE PUSH1 0x1 ADD PUSH2 0x2F5B JUMP JUMPDEST POP POP POP POP POP POP JUMP JUMPDEST DUP2 MLOAD PUSH8 0xFFFFFFFFFFFFFFFF DUP2 GT ISZERO PUSH2 0x2F90 JUMPI PUSH2 0x2F90 PUSH2 0x2B67 JUMP JUMPDEST PUSH2 0x2FA4 DUP2 PUSH2 0x2F9E DUP5 SLOAD PUSH2 0x2E5C JUMP JUMPDEST DUP5 PUSH2 0x2F28 JUMP JUMPDEST PUSH1 0x20 DUP1 PUSH1 0x1F DUP4 GT PUSH1 0x1 DUP2 EQ PUSH2 0x2FD9 JUMPI PUSH1 0x0 DUP5 ISZERO PUSH2 0x2FC1 JUMPI POP DUP6 DUP4 ADD MLOAD JUMPDEST PUSH1 0x0 NOT PUSH1 0x3 DUP7 SWAP1 SHL SHR NOT AND PUSH1 0x1 DUP6 SWAP1 SHL OR DUP6 SSTORE PUSH2 0x2F6E JUMP JUMPDEST PUSH1 0x0 DUP6 DUP2 MSTORE PUSH1 0x20 DUP2 KECCAK256 PUSH1 0x1F NOT DUP7 AND SWAP2 JUMPDEST DUP3 DUP2 LT ISZERO PUSH2 0x3008 JUMPI DUP9 DUP7 ADD MLOAD DUP3 SSTORE SWAP5 DUP5 ADD SWAP5 PUSH1 0x1 SWAP1 SWAP2 ADD SWAP1 DUP5 ADD PUSH2 0x2FE9 JUMP JUMPDEST POP DUP6 DUP3 LT ISZERO PUSH2 0x3026 JUMPI DUP8 DUP6 ADD MLOAD PUSH1 0x0 NOT PUSH1 0x3 DUP9 SWAP1 SHL PUSH1 0xF8 AND SHR NOT AND DUP2 SSTORE JUMPDEST POP POP POP POP POP PUSH1 0x1 SWAP1 DUP2 SHL ADD SWAP1 SSTORE POP JUMP JUMPDEST DUP2 DUP2 SUB DUP2 DUP2 GT ISZERO PUSH2 0x732 JUMPI PUSH2 0x732 PUSH2 0x2EAC JUMP JUMPDEST DUP1 DUP3 ADD DUP1 DUP3 GT ISZERO PUSH2 0x732 JUMPI PUSH2 0x732 PUSH2 0x2EAC JUMP JUMPDEST PUSH1 0x20 DUP1 DUP3 MSTORE PUSH1 0x25 SWAP1 DUP3 ADD MSTORE PUSH32 0x4552433732313A207472616E736665722066726F6D20696E636F727265637420 PUSH1 0x40 DUP3 ADD MSTORE PUSH5 0x37BBB732B9 PUSH1 0xD9 SHL PUSH1 0x60 DUP3 ADD MSTORE PUSH1 0x80 ADD SWAP1 JUMP JUMPDEST PUSH1 0x20 DUP1 DUP3 MSTORE PUSH1 0x32 SWAP1 DUP3 ADD MSTORE PUSH32 0x4552433732313A207472616E7366657220746F206E6F6E204552433732315265 PUSH1 0x40 DUP3 ADD MSTORE PUSH18 0x31B2B4BB32B91034B6B83632B6B2B73A32B9 PUSH1 0x71 SHL PUSH1 0x60 DUP3 ADD MSTORE PUSH1 0x80 ADD SWAP1 JUMP JUMPDEST PUSH1 0x0 DUP4 MLOAD PUSH2 0x3105 DUP2 DUP5 PUSH1 0x20 DUP9 ADD PUSH2 0x2965 JUMP JUMPDEST DUP4 MLOAD SWAP1 DUP4 ADD SWAP1 PUSH2 0x3119 DUP2 DUP4 PUSH1 0x20 DUP9 ADD PUSH2 0x2965 JUMP JUMPDEST ADD SWAP5 SWAP4 POP POP POP POP JUMP JUMPDEST PUSH1 0x1 PUSH1 0x1 PUSH1 0xA0 SHL SUB DUP6 DUP2 AND DUP3 MSTORE DUP5 AND PUSH1 0x20 DUP3 ADD MSTORE PUSH1 0x40 DUP2 ADD DUP4 SWAP1 MSTORE PUSH1 0x80 PUSH1 0x60 DUP3 ADD DUP2 SWAP1 MSTORE PUSH1 0x0 SWAP1 PUSH2 0x3155 SWAP1 DUP4 ADD DUP5 PUSH2 0x2989 JUMP JUMPDEST SWAP7 SWAP6 POP POP POP POP POP POP JUMP JUMPDEST PUSH1 0x0 PUSH1 0x20 DUP3 DUP5 SUB SLT ISZERO PUSH2 0x3171 JUMPI PUSH1 0x0 DUP1 REVERT JUMPDEST DUP2 MLOAD PUSH2 0x2315 DUP2 PUSH2 0x2932 JUMP JUMPDEST PUSH4 0x4E487B71 PUSH1 0xE0 SHL PUSH1 0x0 MSTORE PUSH1 0x31 PUSH1 0x4 MSTORE PUSH1 0x24 PUSH1 0x0 REVERT INVALID LOG2 PUSH5 0x6970667358 0x22 SLT KECCAK256 DUP12 PUSH14 0x897253216661DDC03E163E99D7BE 0xC9 0xC6 0x23 ADDRESS 0xAC MULMOD BASEFEE NUMBER 0xEC CODECOPY PUSH22 0xBBD70B382964736F6C63430008130033000000000000 ",
    "sha1": "44e2905c47803f7a042cb67953bf39186cf12431",
    "source": "// SPDX-License-Identifier: GPL-3.0\npragma solidity >=0.7.0 <0.9.0;\n\nimport \"OpenZeppelin/openzeppelin-contracts@4.8.2/contracts/token/ERC721/ERC721.sol\";\nimport \"OpenZeppelin/openzeppelin-contracts@4.8.2/contracts/token/ERC721/extensions/ERC721Enumerable.sol\";\nimport \"OpenZeppelin/openzeppelin-contracts@4.8.2/contracts/token/ERC721/extensions/ERC721URIStorage.sol\";\nimport \"OpenZeppelin/openzeppelin-contracts@4.8.2/contracts/access/Ownable.sol\";\nimport \"OpenZeppelin/openzeppelin-contracts@4.8.2/contracts/utils/Counters.sol\";\n\n\n// next add require methods or statements to use as restriction peremeters to functions with specific confineds.\n\ncontract FundRaiser is ERC721, ERC721Enumerable, ERC721URIStorage, Ownable {\n    using Counters for Counters.Counter;\n    using Counters for Counters.Counter;\n    using Counters for Counters.Counter;\n    using Counters for Counters.Counter; // update here\n    Counters.Counter private _DonatorsCount;\n    Counters.Counter private _PostsCount;\n    Counters.Counter private _ActPstCount; // update here\n    Counters.Counter private _tokenIdCounter; // Number Of Tokens Created On This Contract\n\n    uint public _TotalDonations;\n    uint private _DonationBalance;\n\n    struct Donator{ \n        uint donatorsIdx;  \n        address adr;  \n        uint amount; \n        uint donCount; // amount of time the user donated    \n    }\n\n    struct Post{ \n        uint postIdx;  \n        address author;  \n        string post;\n        string slug; // update here\n        uint likecount;     \n    }\n\n    struct likeAdrs{\n      address user;\n      bool liked;\n    }\n\n    mapping(uint => mapping(address => likeAdrs)) public PostLikes;\n\n    mapping(uint => Post) public AllPosts;\n\n    mapping(address  => Donator) public AllDonators;\n\n    address[] public DonorsAdrLst; // new update..... \n\n    \n    //Initiated At first Contract Deployment.\n    constructor() ERC721(\"FundRaiserNFTs\", \"FRN\") { \n          // Initialize the tokenIdCounter to start 1\n         _tokenIdCounter.increment();\n    }\n\n\n\n    // CROWDFUND SECTION\n    // checked\n    function safeMint(string memory uri) public {\n        require(AllDonators[msg.sender].donCount - balanceOf(msg.sender) >= 1, \"The Connected account is Not eligible to Mint token\"); \n        uint256 tokenId = _tokenIdCounter.current(); // this line and the next assigns a token Id and updates the _tokenIdCounter State Variable.\n        _tokenIdCounter.increment();    \n        _safeMint(msg.sender, tokenId); // This Line And The Next Two Make's Call's To These Called Function To Complete The Minting Process.\n        _setTokenURI(tokenId, uri); \n    }\n\n\n    // checked updated this....\n    function Donate() public payable {\n      require(msg.sender != owner(), \"Donations Can Not Be Made By The Contract Owner\");\n      require(msg.value >= (10**18)*2, \"Sent Value Below Ninimum Donation\");\n      payable(owner()).transfer(msg.value);\n      _TotalDonations += msg.value;\n      _DonationBalance += msg.value;\n      if(AllDonators[msg.sender].adr == msg.sender ){\n          AllDonators[msg.sender].amount += msg.value;\n          AllDonators[msg.sender].donCount +=1;\n          return;\n      }        \n      Donator storage D = AllDonators[msg.sender];\n      D.donatorsIdx = _DonatorsCount.current();\n      _DonatorsCount.increment();\n      D.adr = msg.sender;\n      D.amount = msg.value;\n      D.donCount +=1;\n      DonorsAdrLst.push(msg.sender); // update here.....\n      return;\n    }\n\n        //Making This Call Will Withdraw Payments Made To The Contract, The Call Could Be Made Only By Contract Owner \n    function TransferDonations(address payable adr) public payable onlyOwner {\n        require(msg.sender != adr, \"Transfer To Own Account Is Not Valid\");\n        require(msg.value < _DonationBalance, \"Withdrawal Limits Excceded\");\n        adr.transfer(msg.value);\n        _DonationBalance -= msg.value;\n    }\n\n    // update here\n    function DonorAdr() public view onlyOwner returns (address[] memory)\n    {\n      address[] memory Adrs = new address[](DonorsAdrLst.length);\n      for (uint256 i = 0; i < DonorsAdrLst.length; i++) { // Here We will Be Useing A loop And Some  Called Functions  \n        Adrs[i] = DonorsAdrLst[i]; // To Complete The Process i.e Return The Array.\n      }\n      return Adrs;\n    }    \n\n      // checked\n    function _donationtBalance() public onlyOwner view returns( uint ){\n        // require(msg.sender == owner(), \"You are not Authorized to make this Request\");\n        return _DonationBalance;\n    }  \n\n    // checked\n    //Making This Call Returns A fixed Array Containing Every Token Associated With The Caller\n    function OwnWallet()public view returns (uint256[] memory)\n    {\n      uint256 ownerTokenCount = balanceOf(msg.sender);\n      uint256[] memory tokenIds = new uint256[](ownerTokenCount);\n      for (uint256 i = 0; i < ownerTokenCount; i++) { // Here We will Be Useing A loop And Some  Called Functions  \n        tokenIds[i] = tokenOfOwnerByIndex(msg.sender, i); // To Complete The Process i.e Return The Array.\n      }\n      return tokenIds;\n    }\n\n\n    // BLOG SECTION\n    // checked\n    function NewPost(string memory post, string memory slug) public{\n      require(bytes(post).length > 0, \"Invalid Post\");\n      Post storage P = AllPosts[_PostsCount.current()];\n      P.postIdx = _PostsCount.current();\n      P.author = msg.sender;\n      P.post = post;\n      P.slug = slug; // update here.\n      _PostsCount.increment();\n      _ActPstCount.increment();      \n    }\n\n    // checked new update.....\n    function LikeandUnlikePost(uint postId) public{\n      require(AllPosts[postId].postIdx == postId, \"Invalid Post Do Not Exist\");\n      if(PostLikes[postId][msg.sender].user == msg.sender){\n         if(PostLikes[postId][msg.sender].liked ==  true){\n            PostLikes[postId][msg.sender].liked = false;\n            AllPosts[postId].likecount -= 1;\n            return;\n         }\n          PostLikes[postId][msg.sender].liked = true;\n          AllPosts[postId].likecount += 1;\n          return;\n        }\n      AllPosts[postId].likecount += 1;\n      likeAdrs storage l = PostLikes[postId][msg.sender];\n      l.user = msg.sender;\n      l.liked = true;\n      return;\n    }\n\n    // checked\n    function ReturnLiked(uint postId) public view returns (bool)\n    {\n      require(AllPosts[postId].postIdx == postId, \"invalid Post Do Not Exist\");\n      // require(PostLikes[postId][msg.sender].user == msg.sender, \"Invalid account or Account Has'nt Liked Post Yet\"); update here\n      if (PostLikes[postId][msg.sender].user != msg.sender){\n          return false;\n      }  \n      bool Liked = PostLikes[postId][msg.sender].liked;\n      return Liked;\n    }\n\n\n    // checked\n    function DeletePost(uint postId) public{\n      require(AllPosts[postId].postIdx == postId, \"Invalid.. Post Does Not Exist\");\n      require(AllPosts[postId].author == msg.sender, \"Account Unathurized To Delete Post\");\n      delete AllPosts[postId];\n      _ActPstCount.decrement();\n    }\n\n    \n    // checked\n    function ReturnPosts() public view returns (Post[] memory)\n    { \n      uint idx = 0;\n      Post[] memory Posts = new Post[](_ActPstCount.current());\n      for (uint i = 0; i < _PostsCount.current(); i++) { // Here We will Be Useing A loop And Some  Called Functions\n            if(bytes(AllPosts[i].post).length > 0){\n                Posts[idx] = AllPosts[i];\n                idx++;\n            }    // To Complete The Process i.e Return The Array.\n      }\n      return Posts;\n    }\n\n    // The following functions are overrides required by Solidity.\n    function _beforeTokenTransfer(address from, address to, uint256 tokenId, uint256 batchSize)\n      internal\n      override(ERC721, ERC721Enumerable)\n    {\n      super._beforeTokenTransfer(from, to, tokenId, batchSize);\n    }\n\n    function supportsInterface(bytes4 interfaceId)\n      public\n      view\n      override(ERC721, ERC721Enumerable)\n      returns (bool)\n    {\n      return super.supportsInterface(interfaceId);\n    }\n\n    function _burn(uint256 tokenId) internal override(ERC721, ERC721URIStorage) {\n      super._burn(tokenId);\n        \n    }\n    // Returns The Token URI Of The Requested Token.\n    function tokenURI(uint256 tokenId)\n      public\n      view\n      virtual\n      override(ERC721, ERC721URIStorage)\n      returns (string memory)\n    {\n      require(\n        _exists(tokenId),\n        \"ERC721Metadata: URI query for nonexistent token\"\n      );\n    \n        return super.tokenURI(tokenId);\n\n    }  \n\n}\n",
    "sourcePath": "contracts/Crowdfundnfts.sol",
    "type": "contract"
}